:020000040800F2
:1000000070470020610200088F290008552400086D
:100010008D290008B9080008C53400080000000058
:10002000000000000000000000000000A101000826
:10003000C50B000800000000FD0100083D2C000871
:100040007B0200087B0200087B0200087B0200089C
:100050007B0200087B0200087B0200087B0200088C
:100060007B0200087B0200087B0200087B0200087C
:100070007B0200087B0200087B0200087B0200086C
:10008000750A0008810A00087B0200087B0200084C
:100090007B0200087B0200087B0200087B0200084C
:1000A0007B020008092D00087B0200087B02000883
:1000B0007B0200087B0200087B0200087B0200082C
:1000C0007B0200087B0200087B0200087B0200081C
:1000D0007B0200087B020008993400087B020008BC
:1000E0007B0200087B0200087B0200087B020008FC
:1000F0007B020008212D00087B0200087B0200081B
:100100007B0200087B020008152D00087B02000816
:100110007B0200087B0200087B0200087B020008CB
:100120007B0200087B0200087B0200087B020008BB
:100130007B0200087B0200087B0200087B020008AB
:100140007B0200087B0200087B0200087B0200089B
:100150007B0200087B0200087B0200087B0200088B
:100160007B0200087B0200087B0200087B0200087B
:100170007B0200087B0200087B02000800000000F0
:100180007B0200087B020008DFF810D000F082FB41
:100190000048004719350008AFF300807047002081
:1001A0002C4B19680868B0E8F04F80F30988BFF35A
:1001B0006F8F4FF0000080F311887047000000003F
:1001C00008480068006880F308884FF0000080F35A
:1001D000148862B661B6BFF34F8FBFF36F8F00DF35
:1001E00000BF00BF08ED00E0DFF80C00016841F43B
:1001F00070010160704700BF88ED00E0EFF30980F7
:10020000BFF36F8F134B1A681EF0100F08BF20ED5D
:10021000108A20E9F04F106009B44FF0500080F3CD
:100220001188BFF34F8FBFF36F8F04F05DF84FF06D
:10023000000080F3118809BC19680868B0E8F04F25
:100240001EF0100F08BFB0EC108A80F30988BFF3CE
:100250006F8F7047A8000020EFF305807047000003
:100260000648804706480047FEE7FEE7FEE7FEE750
:10027000FEE7FEE7FEE7FEE7FEE7FEE7ED2C0008FF
:10028000890100082DE9F05F0546002092469B4653
:1002900088460646814640241BE02846414647469C
:1002A000224600F040FA53465A46C01A914110D3F4
:1002B00011461846224600F027FA2D1A67EB01086E
:1002C0004F4622460120002100F01EFA17EB0009DC
:1002D0004E41201EA4F10104DFDC484631462A4687
:1002E0004346BDE8F09F40EA01039B0703D009E0C5
:1002F00008C9121F08C0042AFAD203E011F8013B12
:1003000000F8013B521EF9D27047D2B201E000F86A
:10031000012B491EFBD270470022F6E710B51346A9
:100320000A4604461946FFF7F0FF204610BD2DE9A6
:10033000FE4F804681EA0300C00F0C46009021F07A
:10034000004123F00045B8EB0200A94105D2404628
:10035000214690461C460B46024623F000401043BF
:1003600047D0270DC7F30A00C3F30A510290401A81
:10037000019040286BDAC3F3130040F4801B00980F
:10038000924620B10023D2EB030A63EB0B0B0198DA
:100390005946C0F14002504600F0B6F906460D46F7
:1003A00050465946019A00F0CEF910EB0800614121
:1003B000002487EA115284EAE7731A4340D0009A76
:1003C00062B3019A012A4FEA075215DC001B61EB68
:1003D00002014FF0004202EA0752CDE90042001C40
:1003E00041F5801132462B4600F005FA03B0BDE816
:1003F000F08F40462146F9E7001B61EB0201001C2B
:1004000041F5801300185B412018A2F5001747EB57
:10041000030140EAD570B6196D4111E06D084FEA4D
:10042000360645EAC0754FEA0752001B61EB020130
:10043000001C41F5801149084FEA30000019514174
:1004400032462B4603B0BDE8F04F00F0C5B9009826
:10045000012240000023D0EB020263EBE07300981E
:1004600021464FEAE074B8EB000061EB0401E9E7D4
:1004700083F000435BE781F0004158E72DE9FE4F30
:1004800081EA030404F0004421F0004100944FF09D
:10049000000B23F0004350EA01045ED052EA03044B
:1004A0005BD0C3F30A54C1F30A552C44A4F2F334CD
:1004B0000194A0FB0254C1F3130141F48011C3F372
:1004C000130343F4801301FB024400FB034E840A30
:1004D000970A44EA815447EA8357A4FB07680295C8
:1004E0008D0A05FB07854FEA932C04FB0C54270566
:1004F000029D4FEA065847EA1637B5EB08056EEB42
:10050000070C870E920E47EA811742EA8312A7FB77
:100510000201B6EB0B0164EB00042B0D43EA0C3334
:100520005E1844EB1C50DA465146E7FB0201C5F366
:1005300013044FEA0B3343EA14534FEA0432019C8D
:1005400043EA0603A4F10C040294009CCDE900B434
:1005500000F051F903B0BDE8F08F00200146F9E743
:100560002DE9F04D81EA030404F0004B21F0004531
:1005700014464FF0000A23F0004150EA050220D053
:1005800054EA01021DD0C5F30A570246C5F313030E
:10059000C1F31300C1F30A5640F4801543F48013ED
:1005A000A7EB0608101BD64608F2FD3873EB0500D2
:1005B00002D308F1010801E092185B41B8F1000F85
:1005C00003DA00200146BDE8F08D00204FF48011D1
:1005D000064684460EE0171B73EB050705D3121B76
:1005E00063EB050306434CEA010C49084FEA30006F
:1005F00092185B4150EA0107EDD152EA030012D094
:1006000082EA040083EA0501084305D0101BAB41D0
:1006100006D20122002306E000224FF0004302E050
:100620006FF0010253101AEB06004CEB085110EB6F
:100630000A0041EB0B01BDE8F04D00F0CDB80EB55E
:10064000C10F80EAE0700844CA07002140F233433A
:100650008DE80E000A460B4600F0CDF803B000BD51
:1006600070B5C1F30A5201F000450024C1F3130133
:1006700040F2FF3341F480119A4201DA002070BD4C
:1006800040F233439A42A2F2334203DC524200F07A
:100690004AF800E090402C43F1D0404270BD000089
:1006A00030B5041E71F1000404DB4FF000444042F9
:1006B00064EB0101141E73F1000405DB1C464FF0CE
:1006C0000043524263EB04038B4208BF824230BDB9
:1006D00001F0004330B421F0004150EA010206D09D
:1006E0000A0DA2F56072C1F31301002A02DC30BCCE
:1006F00000207047440F44EAC104C100E01830BC38
:1007000000EBC25000F031B8202A04DB203A00FA96
:1007100002F1002070479140C2F1200320FA03F358
:10072000194390407047202A04DB203A21FA02F056
:100730000021704721FA02F3D040C2F1200291401B
:10074000084319467047202A06DBCB17203A41FAA6
:1007500002F043EAE07306E041FA02F3D040C2F14E
:10076000200291400843194670470029A8BF7047EE
:10077000401C490008BF20F00100704710B4B0FAD7
:1007800080FC00FA0CF050EA010404BF10BC704772
:1007900049B1CCF1200421FA04F411FA0CF118BF8C
:1007A000012121430843A3EB0C01CB1D4FEA00615B
:1007B0004FEA102042BF002010BC704700EBC3502E
:1007C00010440029A4BF10BC7047401C490008BF5A
:1007D00020F0010010BC704710B5141E73F1000426
:1007E00008DA401C41F1000192185B411A4301D123
:1007F00020F0010010BD2DE9F04D92469B4611B14D
:10080000B1FA81F202E0B0FA80F220329046FFF7AE
:100810007BFF04460F4640EA0A0041EA0B015346BB
:100820005A46084313D0114653EA010019D0C8F1C3
:1008300040025046FFF777FF05460E4650465946A0
:100840004246FFF761FF084305D0012004E020463F
:100850003946BDE8F08D0020054346EAE0762C439A
:1008600037430A986305E40AA0EB08000022FD0A5A
:1008700044EA47540A3002D500200146E9E7010561
:1008800010196941DDE9084500196941BDE8F04DDD
:10089000A2E70000064C074D06E0E06840F00103C7
:1008A00094E8070098471034AC42F6D3FFF770FC89
:1008B000D04D0008F04D0008FEE7000030B51049AB
:1008C00000204A680F494B68D41A0A340346142C96
:1008D0000CD8002A01DB144600E054420A4D2D6872
:1008E000AC4203DC0C68641C0C6000E00B604A60E6
:1008F0000A680A2A02DB0B6001204B6030BD000051
:10090000600600201C0000205800002030B510496F
:1009100000204A680F494B68D41A0A340346142C45
:100920000CD8002A01DB144600E054420A4D2D6821
:10093000AC4203DC0C68641C0C6000E00B604A6095
:100940000A680A2A02DB0B6001204B6030BD000000
:100950004006002014000020440000202DE9F04152
:10096000002000F099F9411C5BD02F49014408791F
:100970004B798A79C518541C2C442C4DE4B22C7048
:10098000C979A14243D10025294E2A4FDFF8A8801A
:100990002A4CFE2805D0FC2817D02179FF291BD02E
:1009A00030E03070207126489FED260A0560264809
:1009B00080ED000A3D80C8F8245026489FED230BA7
:1009C00080ED000B2120A0711CE03070207101F03F
:1009D00043FDFF20207115E030701F4803701F4851
:1009E000027000F0A5F83D80C8F824501C48002390
:1009F0001A461946006803F087FD307819492071BE
:100A0000607908601849012008701849087064214D
:100A10000548FFF781FC16480068016821F00101D4
:100A20000160BDE8F0810000DC05002089000020A5
:100A300086000020480000200000014064000020E3
:100A400078000020000000004C00002000000000A2
:100A500000804040700000208700002088000020B7
:100A60007C00002080000020840000208500002001
:100A7000DC040020014800F047B90000DC0400203D
:100A8000014800F041B900003C050020016818232E
:100A9000CAB2103AB2FBF3F2054B6FF30901032A15
:100AA0009B5CC36500D9091D81650846704700003D
:100AB000744D000810B5014600208B698A6A4FF01A
:100AC000C07453B1B3F5005F15D072B1012A0CD0D8
:100AD000022A0AD0032A09D104E01AB1012A06D059
:100AE000022A03D1C96AC90100D5012010BDC96A13
:100AF000A142FAD010BD002AF7D0012AF2D0022A72
:100B0000F3D0032AF3D010BD30B50468256825F46E
:100B100080252560046863608368402B036803D0E8
:100B200099600068C26030BD9A600068C16030BDE5
:100B300070B51C491A48184C09780170174D48B215
:100B4000FFF77DFD9FED181B53EC112BFFF708FD00
:100B50009FED171B53EC112BFFF790FC41EC100B92
:100B6000154884ED000B9FED151B0078286053ECB1
:100B7000112B51EC100BFFF793FD0CD228680028C5
:100B800009D0B438286094ED000B51EC100B81F0C3
:100B90000041C4E9000170BD700000207800002011
:100BA0008A000020880000200000000000C05F4094
:100BB000000000000080414087000020000000008D
:100BC00000000000704700002D4D2E4C4FF0FF3606
:100BD0002068012850D12C483146006803F092FD6E
:100BE000012849D129483146006803F08BFD0128CE
:100BF00042D1287800B3022816D0042817D0012843
:100C000018D0032819D006281AD007281BD0082886
:100C10001CD009281DD00A281ED00B281FD00C2854
:100C200020D0052821D022E002F034FD1FE002F0A0
:100C30002DFE1CE002F000FD19E002F01DFE16E0A2
:100C400002F02EFE13E002F051FE10E002F0DEFC96
:100C50000DE002F063FD0AE002F09CFD07E002F007
:100C600033FE04E002F044FD01E002F02BFE0849EF
:100C7000FF20087100202060012002F047FEA7E756
:100C8000860000207C0000209000002094000020BE
:100C9000640000207047000010B54FF0FF3310498A
:100CA00003E0401C40B25D2817DA0A5C532AF8D1F1
:100CB0000A1854785A2CF4D19478482CF1D1D2786F
:100CC000592AEED1014409794A1E0B2A06D9FC297A
:100CD00004D0FE2902D0002900D0184610BD000023
:100CE000DC05002090F83510022903D080214165F1
:100CF00001207047052180F835100068016821F057
:100D000001010160002070472DE9F84304464FF0CF
:100D10000009CDF8009063484FF41651A56D0068A6
:100D2000B0FBF1F72E6894F85C10082000FA01F18E
:100D300031420FD021680A6852070BD50A6822F0A9
:100D400004020A6094F85C108840A860606D40F06E
:100D50000100606594F85C104FF0010808FA01F09A
:100D6000304208D021684969090604D5A860606D41
:100D700040F00200606594F85C1004208840304226
:100D800008D021680968890704D5A860606D40F023
:100D90000400606594F85C1010208840304218D040
:100DA00021680968090714D5A8602068016849030B
:100DB00004D50068000308D5A16C07E00168C905E7
:100DC00003D4016821F008010160216C09B12046BB
:100DD000884794F85C1020208840304231D0216848
:100DE0000968C9062DD5A86094F835000528206843
:100DF000016806D0490347D5006800031DD4616C23
:100E00001CE021F0160101602068416921F0800199
:100E10004161206C08B9A06C20B12068016821F004
:100E20000801016094F85C103F208840A86084F8B5
:100E3000349084F83580216D1FE0E16B09B12046C4
:100E40008847606D00282BD0606DC00714D0052046
:100E500084F835002068016821F0010101600098E4
:100E6000401C0090B84203D820680068C007F6D143
:100E700084F8349084F83580E16C002910D001B0FA
:100E80002046BDE8F04308470168C905D5D401688C
:100E900021F01001016084F8349084F83580CCE7AB
:100EA000BDE8F883A40000202DE9F041044600F0DD
:100EB00091F906465CB1002584F83450022084F88C
:100EC00035002068016821F0010101600DE001207A
:100ED000BDE8F08100F07EF9801B052805D92020AF
:100EE0006065032084F83500F2E720680068C007D9
:100EF000F0D12268116820480140D4E90103184369
:100F0000D4E903363343184363691843A36918438C
:100F1000E3691843236A18430843616A042903D12B
:100F2000D4E90B1319430843106020684069666ACE
:100F300020F0070130460E43012704280CD1A06A97
:100F40000643E06A40B12046FFF7B4FD20B14020DF
:100F5000606584F83570BAE7206846612046FFF77F
:100F600095FD94F85C203F2191408160656584F88F
:100F700035700020ACE700003F8010F02DE9F04113
:100F80000446866D90F83400002501280DD001201C
:100F900084F8340094F835700020012F07D084F8CD
:100FA000340002252846BDE8F0810220FBE7022735
:100FB00084F8357060652046FFF7A6FD94F85C1054
:100FC0003F208840B0602068016841F01601016050
:100FD000206C20B12068016841F0080101602068A0
:100FE000016841F001010160DCE7000070B50446D2
:100FF00000F0F0F80546601C02D004480078044474
:1010000000F0E8F8401BA042FAD370BD9800002021
:101010002DE9F84F00224FF0010803254FF00F0E85
:101020000B6808FA02F42340A3426ED14E68012EE9
:1010300005D0022E03D0112E01D0122E12D18668B7
:101040004FEA420C05FA0CF7BE43CF6807FA0CF7DB
:10105000374387604668A6430C79C4F30014944074
:1010600034434460C668570005FA07FC8C6826EADA
:101070000C06BC403443C4604C68022C01D0122CD6
:1010800013D1D40800EB8404A346D4F8209054076D
:101090004FEAD46A0EFA0AF629EA06090E6906FA38
:1010A0000AF646EA0906CBF8206006680C7926EABB
:1010B0000C0604F00304BC40344304604C68E400B4
:1010C00065D5364C266846F480462660246822F0B2
:1010D000030604F480440094314C3444A446D4F80C
:1010E00008489607370F0EFA07F6B4432D4EB04264
:1010F00001D1002624E02C4EB04201D101261FE090
:101100002A4EB04202D102261AE040E0284EB042F8
:1011100001D1032614E0274EB04201D104260FE08E
:10112000254EB04201D105260AE0244EB04201D13D
:10113000062605E0224EB04201D1072600E008262F
:10114000BE402643CCF808681E4E34684F689C4366
:10115000FF0300D51C4334601A4C241D26684F68D9
:101160009E43BF0300D51E432660164E08363468E2
:101170004F689C43FF0200D51C433460114E0C366F
:1011800034684F689C43BF0200D51C433460521C36
:10119000102AFFF445AFBDE8F88F00004438024044
:1011A00000300140000002400004024000080240FC
:1011B000000C0240001002400014024000180240DF
:1011C000001C0240003C01400AB1816170470904E3
:1011D000FBE700000148806870470000980000208D
:1011E00002488168027811448160704798000020AD
:1011F0000B4810B5016841F400710160016841F4C9
:1012000080610160016841F480710160032000F099
:1012100089F8002000F006F800F03EF8002010BD2C
:10122000003C024010B5014688B000222D2000F09D
:1012300059F82D2000F048F813480024016841F4C3
:1012400080710160006805A900F48070069068460E
:1012500000F014F900F032F90C494000B0FBF1F154
:101260000C480B4A491E026040F2E732C0E90324F1
:10127000C0E9011400F06AFB10B1012008B010BDF4
:10128000044800F0AFFBF9E74038024040420F004D
:10129000002000409C0500200A4808B5016841F480
:1012A00080410160006800F4804000900548001F04
:1012B000016841F080510160006800F080500090AA
:1012C00008BD000044380240002809DB00F01F027E
:1012D000012191404009800000F1E020C0F8001198
:1012E00070470000F0B40E4B1B680C46C3F302239A
:1012F000C3F10705042D00D90425191D072901D2C2
:10130000002300E0DB1E012606FA05F1491E2140FC
:1013100099409E40761E16403143F0BC02F0D3B88F
:101320000CED00E0064900F0070208684FF6FF03E5
:10133000184040EA0220034A10430860704700004A
:101340000CED00E00000FA052DE9F0470E4605001F
:1013500065D0DFF81481D8F80000F7B200F00F0074
:10136000B04207D288F80070D8F8000000F00F00F3
:10137000B04254D128683D4C810712D5400703D5AF
:10138000206840F4E05020602878000703D52068EA
:1013900040F4604020602068A96820F0F000084315
:1013A00020602878C0072DD03049686808390128A6
:1013B00012D0022813D0032811D009688907002908
:1013C0002DDA216821F0030101432160FFF702FFBC
:1013D000814641F2883A0EE009688903EFE709681F
:1013E0008901ECE7FFF7F6FEA0EB0901514502D9B0
:1013F0000320BDE8F0872068696800F00C00B0EBBE
:10140000810FEFD1D8F80010404601F00F01B14232
:1014100007D90770006800F00F00B04201D001202A
:10142000E7E72878400705D52068E96820F4E05010
:10143000084320602878000706D52068296920F431
:10144000604040EAC100206000F058F82168084A76
:10145000C1F30311515CC8400649086006480068A2
:10146000FFF7E0FE0020C4E7003C024008380240DD
:101470007C4D0008A40000209C0000200F22026088
:101480000C4A136803F003034360136803F0F0038E
:101490008360136803F4E053C36012684FF4E053B1
:1014A00003EAD20202610448006800F00F000860FD
:1014B0007047000008380240003C024004480549DB
:1014C00000680968044AC1F38221515CC840704732
:1014D000A4000020083802408C4D0008044805494B
:1014E00000680968044AC1F34231515CC840704742
:1014F000A4000020083802408C4D0008154810B5A3
:10150000006810F00C02144813D04110042A0FD0C8
:10151000082A0ED10F4C241F2268236802F03F02D4
:101520005B0207D52068C0F38810A0FB010106E02C
:10153000084610BD2168C1F38811A1FB00010023FA
:10154000FEF7A0FE2168C1F30141491C4900B0FB30
:10155000F1F010BD083802400024F4002DE9F84FE6
:1015600004006ED02078DFF83C93C007A9F1040591
:101570004AD009F104000168C1F38101012908D0B2
:101580000068C0F3810002280AD1D9F800004002A7
:1015900006D52868800337D560680028E1D033E09D
:1015A0006068B0F5803F10D0B0F5A02F286810D04B
:1015B00020F480302860286820F48020286060684B
:1015C000A8B1FFF707FE06460DE0286840F480301A
:1015D000F4E740F480202860F7E700BFFFF7FAFD4A
:1015E000801B642873D828688003F7D50CE0FFF7C8
:1015F000F1FD064605E000BFFFF7ECFD801B642807
:10160000F0D828688003F7D42078DFF89C82800720
:101610004FF0000A3ED5A348001D016811F00C0FE1
:1016200008D00068C0F3810002280BD1D9F800006F
:10163000400207D42868800716D5E068012800D149
:1016400012E02BE1E068B8B10120C8F80000FFF714
:10165000C1FD064605E000BFFFF7BCFD801B022868
:10166000C0D828688007F7D52868216920F0F800DD
:1016700040EAC10028600DE0C8F800A0FFF7AAFD0D
:10168000064604E0FFF7A6FD801B02281FD8286845
:101690008007F7D42078000722D5824E83486169FD
:1016A000703671B101210160FFF794FD074604E037
:1016B000FFF790FDC01B022809D830688007F7D5D6
:1016C0000EE0C0F800A0FFF785FD074605E082E0C8
:1016D000FFF780FDC01B02287DD830688007F7D453
:1016E0002078400768D5DFF8BCB100270BF13C0B30
:1016F000DBF80000C0000BD4DBF8001041F0805193
:10170000CBF80010DBF80000012700F080500090BB
:10171000674E3068C00510D4306840F48070306087
:10172000FFF758FD009005E0FFF754FD0099401ABF
:10173000022850D83068C005F6D55A4EA0686C36DD
:1017400001280FD00528306810D020F0010030604B
:10175000306820F004003060A068B8B1FFF73AFDAF
:1017600000900FE0306840F00100F4E740F0040022
:101770003060F7E7FFF72EFD0099411A41F28830FB
:10178000814266D830688007F4D50EE0FFF722FD6D
:10179000009007E0FFF71EFD0099411A41F28830E2
:1017A000814256D830688007F4D42FB1DBF800109E
:1017B00021F08051CBF80010A069C8B33949091D48
:1017C0000968C1F3810102294AD00228504607D096
:1017D000C8F8600000E03CE0FFF7FCFC04463BE09A
:1017E0004746C8F86000FFF7F5FC064605E000BF75
:1017F000FFF7F0FC801B02282BD828688001F7D463
:10180000D4E907010843A16A2A4A490802EB0141C9
:10181000626A41EA8211084394F82C1040EA01619F
:10182000C9F8001001203866FFF7D4FC044606E032
:1018300036E000BFFFF7CEFC001B022809D828685D
:101840008001F7D52CE000BFFFF7C4FC001B022885
:1018500002D90320BDE8F88F28688001F4D41FE086
:101860000128F7D0D9F80000E26900F48001914224
:1018700014D1226A00F03F0191420FD147F6C071A6
:10188000626A0140914209D1A26A00F4403191425A
:1018900004D1E16A00F07060884201D00120D9E7EC
:1018A0000020D7E70438024000004742800E47423C
:1018B000007000400000FFFF7047704770B590F85F
:1018C0003C20012A32D0012480F83C40022280F8DA
:1018D0003D2003685A689D6822F070060A6832430A
:1018E0005A60134B02689A4214D0B2F1804F11D063
:1018F000104B9A420ED0104B9A420BD00F4B9A428B
:1019000008D00F4B9A4205D00E4B9A4202D00E4B94
:101910009A4204D1496825F080031943916080F808
:101920003D40002180F83C10084670BD022070BD8B
:10193000000001400004004000080040000C00408E
:1019400000040140004001400018004010B50400B0
:1019500003D094F83D0010B107E0012010BD002035
:1019600084F83C00204600F00DF8022084F83D0089
:10197000211D206801F0DAF9012084F83D000020E3
:1019800010BD000008B5134A01681348914207D101
:10199000016841F002010160006800F0020009E006
:1019A0000E4A914208D1016841F0040101600068CB
:1019B00000F00400009008BD09488142FBD10648B0
:1019C000001D016841F480210160006800F480205E
:1019D000F0E70000000400404038024000080040EA
:1019E000004801400168CA6842F00102CA6000680C
:1019F000816801F00701062903D0016841F0010167
:101A000001600020704770B5044690F83C00012842
:101A100017D0012584F83C50022084F83D0020684E
:101A2000826822F0770222F47F42826008685028A0
:101A300030D00DDC20284DD005DC98B310283BD1E8
:101A400048E0022070BD302844D0402834D139E02D
:101A5000602828D0702806D0B0F5805F2CD0B0F573
:101A6000005F29D10AE0CB68D1E90121206801F0AB
:101A7000CEF92068816841F0770109E0CB68D1E9AF
:101A80000121206801F0C3F92068816841F4804198
:101A9000816011E0CA684968206801F08DFA502120
:101AA000206807E016E0CA684968206801F095FAE6
:101AB0006021206801F0B5F984F83D50002084F8D9
:101AC0003C0070BDCA684968206801F075FA402181
:101AD0002068EFE7226801461046EBE72DE9F04168
:101AE0000D46040003D094F83D0018B108E0012031
:101AF000BDE8F081002084F83C00204600F03AF870
:101B0000022084F83D002068816844F20702914376
:101B10008160211D206801F009F9226890689169AF
:101B2000166A2B68AF69034340F20330814341EAF0
:101B30000721A868EF6908434FF6FC418843E9682C
:101B400040EA0720014328692F6A000140EA073074
:101B5000084369686D6926F0AA0646EA0515294317
:101B600093602268906120680162012084F83D0042
:101B70000020BDE710B586B0044614216846FEF784
:101B8000CBFB2268294C002129480223A24224D100
:101B9000274A1432146844F001041460126802F0F9
:101BA00001020592026842F010020260006800F033
:101BB000100005904FF420600090CDE90131012024
:101BC000CDE9031069461B48FFF722FA00221146AF
:101BD0001920FFF787FB192024E0174CA24223D1DC
:101BE000134A1032146844F008041460126802F0BA
:101BF00008020592026842F001020260006800F0EB
:101C00000100059003200090CDE90131CDE90313D7
:101C100069460A48FFF7FCF9002211463220FFF717
:101C200061FB3220FFF750FB06B010BD0000014001
:101C30003038024000100240000C0040000002401A
:101C400010B50446006891B1042904D00122002196
:101C500001F0D0F8206801225FF0040101F0CAF819
:101C60002068016841F001010160002010BD0122DF
:101C70000021F3E7704770B50446006801694FF032
:101C80000005C943890715D4C168C943890711D420
:101C9000E91E0161012020772068806980072046C5
:101CA00002D0FFF7E7FF04E000F012F9204600F051
:101CB00094F9257720680169C943490717D4C16899
:101CC000C943490713D46FF0040101610220207752
:101CD0002068806910F4407F204602D0FFF7CAFFD9
:101CE00004E000F0F5F8204600F077F92577206849
:101CF0000169C943090716D4C168C943090712D449
:101D00006FF008010161042020772068C069800716
:101D1000204602D0FFF7AEFF04E000F0D9F82046DD
:101D200000F05BF9257720680169C943C90617D41B
:101D3000C168C943C90613D46FF0100101610820BE
:101D400020772068C06910F4407F204602D0FFF75A
:101D500091FF04E000F0BCF8204600F03EF9257742
:101D600020680169C943C90708D1C168C943C907C7
:101D700004D1891E0161204600F052F920680169F2
:101D8000C943090609D4C168C943090605D46FF0DF
:101D9000800101612046FFF78FFD20680169C9437A
:101DA000490609D4C168C943490605D46FF040010A
:101DB0000161204600F062F920680169C943890683
:101DC0000BD4C168C943890607D46FF020010161B3
:101DD0002046BDE87040FFF770BD70BDF0B587B01C
:101DE000044614216846FEF797FA314A2168002517
:101DF000304802240327304E91421CD1016841F043
:101E000001010160016801F001010591016841F0E3
:101E1000020101600068694600F002000590C020E0
:101E20008DE83100CDE903542448FFF7F1F800971D
:101E3000CDE901451FE0224A914225D1016841F0D8
:101E400008010160016801F008010591016841F095
:101E5000020101600068694600F0020005904FF43D
:101E600060408DE83100CDE903541648FFF7D0F803
:101E700040208DE83100CDE903546946304600BF6B
:101E8000FFF7C6F807B0F0BD0F4A9142FAD10168DA
:101E900041F0200101600068694600F020000590D3
:101EA00080208DE83100CDE903570848E8E70000BD
:101EB00000040040303802400004024000000240AC
:101EC00000080040000C024000480140001402409D
:101ED000704770B5044690F83C000D4601280DD0BF
:101EE000012684F83C60022084F83D0042B1042AB7
:101EF00018D0082A2AD00C2A4DD139E0022070BD12
:101F0000206800F097FF2068816941F00801816135
:101F10002068816921F004018161206881692A6952
:101F2000114311E0206800F0B5FF2068816941F499
:101F3000006181612068816921F48061816120688C
:101F400081692A6941EA0221816124E0206800F068
:101F5000D7FF2068C16941F00801C1612068C169EB
:101F600021F00401C1612068C1692A69114311E0AF
:101F7000206800F0F9FF2068C16941F40061C16187
:101F80002068C16921F48061C1612068C1692A6942
:101F900041EA0221C16184F83D60002084F83C00E0
:101FA00070BD10B5040003D094F83D0010B107E0F7
:101FB000012010BD002084F83C00204600F00CF801
:101FC000022084F83D00211D206800F0AFFE0120B2
:101FD00084F83D00002010BD7047704710B50446DE
:101FE0000068012200F006FF0B492068884202D0F9
:101FF0000A49884203D1416C41F4004141642068A0
:10200000816801F00701062903D0016841F0010150
:102010000160002010BD00000000014000040140EC
:10202000114988420AD109680968104ACB06B2F9F9
:10203000001001D5491E00E0491C11800C4988425E
:102040000AD1096809680B4ACB06B2F9001001D51C
:10205000491E00E0491C118000680749884201D1EF
:10206000FFF7BEB8704700005C0300204800002066
:102070001C0400205C0000200020004070477047D6
:1020800070B5026804461068D168536910F00F0FEC
:1020900052D003F0010501F490762E435FD0C207C1
:1020A00005D0CA0503D5E26B42F00102E2634207A4
:1020B00005D5DA0703D0E26B42F00202E263820741
:1020C00005D5DA0703D0E26B42F00402E2630207AF
:1020D00007D501F020022A4303D0E26B42F0080248
:1020E000E263E26B002A33D0800604D5880602D56D
:1020F000204601F0C0F820684069E16BC0F3801011
:10210000090700D428B3204601F09EF820684169F1
:1021100049061AD5416921F040014161606BA0B1C7
:102120001B490165606BFEF7DDFD002810D0606B78
:10213000016DBDE870400847830610D58B060ED5AB
:102140002046BDE8704001F096B82046FFF797FFA3
:1021500070BD2046FFF793FF0020E06370BD0306CB
:1021600006D50B0604D52046BDE8704001F062B9E3
:102170004006F3D54806F1D5D168204621F040014C
:10218000D160202184F8391000F062F970BD0000A0
:102190007131000802480021006802F065BA0000B1
:1021A0008C00002070B5040004D094F8390000259C
:1021B00010B106E0012070BD84F83850204600F0D0
:1021C00023F8242084F839002068C16821F40051E4
:1021D000C160204601F09AF82068016921F490411D
:1021E00001612068416921F02A0141612068C168CC
:1021F00041F40051C160E563202084F8390084F87F
:102200003A00002070BD00002DE9F04387B006467B
:1022100014216846FEF780F838493068884269D151
:1022200037480024016841F400310160006800F47F
:102230000030059032481038016841F0010101601A
:10224000016801F001010591016841F00801016098
:102250000068022500F0080005900420CDE9000583
:1022600002AA03274FF0070882E890016946254833
:10227000FEF7CEFE02AA4FF0400982E89001CDE9B8
:10228000009569462048FEF7C3FE214D1F484FF0D8
:1022900000672860C5E901744FF48068C5E9034808
:1022A0006C61AC61EC612C6228466C62FEF7FCFD4F
:1022B00008B1FEF7EFFC7563AE63154D134860354A
:1022C0001830C5E903486C61AC61EC612C626C624A
:1022D00085E881022846FEF7E7FD08B1FEF7DAFC43
:1022E0003563002211462620AE63FEF7FBFF262051
:1022F000FEF7EAFF07B0BDE8F083000000440040AD
:102300004038024000000240000C02408860024059
:10231000DC040020F8B5044690F83A0020283CD1AF
:10232000C1B3BAB394F83800012836D0012084F83C
:102330003800A162A2850025E563222084F83A00D6
:10234000636B1748D863636B16481864636B164851
:10235000D864606B134605650846666B21680246C3
:102360003046091DFEF70AFE2068016841680091A9
:1023700084F83850C16841F48071C16020684169B7
:1023800041F0010141612068416941F04001416132
:102390000020F8BDFFE70120FBE70220F9E700007D
:1023A000CB31000807320008813100080068044979
:1023B000884204D1642203490348FFF7ABBF70474A
:1023C00000440040DC0500209C0400207047000011
:1023D00070B5044690F83900202830D169B362B353
:1023E00094F8380001282AD0012084F838002162AE
:1023F000A284E2840025E563212084F83900236B60
:102400001048D863236B10481864236B0F48D864B6
:10241000206B134605652668206B321DFEF7AEFD66
:1024200021686FF04000086084F8385020684169E6
:1024300041F080014161002070BD012070BD02208B
:1024400070BD0000113200083F32000881310008E1
:1024500070477047FEE7000070B5134E00243460EB
:10246000351D42F210702860C820FEF7BFFD3460B1
:1024700041F28830286040F6B830FEF7B7FD2C6096
:102480000A4804800A4804600A4844620C489FEDE8
:102490000A0BFF2180ED000B0A48017144712021D5
:1024A00081711F21C17170BD3C0400405C0000209F
:1024B000240C00400000014000000000008040406B
:1024C0007000002064000020044C2078FC2801D01B
:1024D00000F050FB012001F019FAF6E78600002019
:1024E0000D4808B5016841F4001101600068002240
:1024F00000F40010009011461020FEF7F3FE1020AB
:10250000FEF7E2FE002211461120FEF7EBFEBDE8C9
:1025100008401120FEF7D8BE3038024010B5A4B0F4
:1025200003220021012001F087FF244903220860D3
:102530000021012001F080FF2149032208600021D1
:10254000012001F079FF1F491C2208601E496846DE
:10255000FDF7C9FE0021684601F0E4F91B4C1A4959
:102560001C2220601C3107A8FDF7BDFE002107A832
:1025700001F0D8F9144960601C2238310EA8FDF72B
:10258000B2FE00210EA801F0CDF90F49A0601C2277
:10259000543115A8FDF7A7FE002115A801F0C2F9D6
:1025A0000949E0601C2270311CA8FDF79CFE002147
:1025B0001CA801F0B7F9206124B010BD8C000020E8
:1025C0009000002094000020E84C0008000000204B
:1025D00030B587B014216846FDF79EFE26480024DA
:1025E000016841F020010160016801F020010591BE
:1025F000016841F080010160016801F080010591EE
:10260000016841F004010160016801F004010591D5
:10261000016841F001010160016801F001010591CB
:10262000016841F002010160016801F002010591B9
:10263000016841F010010160016801F0100105918D
:10264000016841F00801016000680C4D00F00800CD
:102650000590002205212846FEF7B6FD05200090D2
:10266000012001900220CDE9020469462846FEF7C8
:10267000CFFC07B030BD00003038024000080240F7
:1026800010B588B01C216846FDF746FE1548144970
:10269000002401607D21C0E9011440F22B11C0E942
:1026A00003148461FFF752F908B1FEF7F3FA0D48FD
:1026B000FFF777FC08B1FEF7EDFA60200090962056
:1026C000CDE901040022694606480494FFF701FCA5
:1026D00008B1FEF7DFFA0348FFF780FB08B010BD32
:1026E000004801405C04002010B58CB024216846ED
:1026F000FDF712FE00241748099415490A94C0E911
:1027000000144FF6FF71C0E9024104614461846125
:102710000320CDE900040120CDE902040621049143
:10272000CDE90540CDE9074169460A48FFF7D6F9EA
:1027300008B1FEF7AFFA099409A906480A94FFF711
:10274000BDF8002801D0FEF7A5FA0CB010BD0000BE
:10275000000001405C03002010B58EB000240794F7
:10276000089409940A940B941C2168460C94FDF774
:10277000D3FD2A48284901605321C0E9011442F2DF
:102780000F71C0E903148461FFF7E0F808B1FEF7A8
:1027900081FA4FF48050079007A92048FFF733F9DA
:1027A00008B1FEF777FA1D48FFF7FBFB08B1FEF70B
:1027B00071FA0B940BA919480C94FFF77FF808B134
:1027C000FEF768FA6020CDE9000402940022694611
:1027D00012480494FFF77DFB08B1FEF75BFA042270
:1027E00069460E48FFF775FB08B1FEF753FA082259
:1027F00069460A48FFF76DFB08B1FEF74BFA0C2259
:1028000069460648FFF765FB08B1FEF743FA03483F
:10281000FFF7E4FA0EB010BD000400409C03002056
:1028200010B58EB000240794089409940A940B9470
:102830001C2168460C94FDF76FFD2A482849016069
:102840005321C0E9011444F61F61C0E903148461F7
:10285000FFF77CF808B1FEF71DFA4FF4805007909F
:1028600007A92048FFF7CFF808B1FEF713FA1D4873
:10287000FFF797FB08B1FEF70DFA0B940BA9194867
:102880000C94FFF71BF808B1FEF704FA6020CDE9BD
:10289000000402940022694612480494FFF719FBD1
:1028A00008B1FEF7F7F9042269460E48FFF711FB5D
:1028B00008B1FEF7EFF9082269460A48FFF709FB5D
:1028C00008B1FEF7E7F90C2269460648FFF701FB5D
:1028D00008B1FEF7DFF90348FFF780FA0EB010BD2C
:1028E00000080040DC03002010B58CB024216846AD
:1028F000FDF712FD00241648099414490A94C0E912
:1029000000144FF6FF71C0E90241046184610320A5
:10291000CDE900040120CDE9020406210491CDE9AE
:102920000540CDE9074169460948FFF7D7F808B1E6
:10293000FEF7B0F9099409A905480A94FEF7BEFF0D
:10294000002801D0FEF7A6F90CB010BD000C004025
:102950001C0400200C4810B50A4901604FF4E13115
:102960004160002181600C22C160C0E904128161D4
:10297000C161FFF717FC002803D0BDE81040FEF747
:1029800089B910BD004400409C040020FEE7704758
:10299000124A00211160D16151609160916190ED06
:1029A000000A82ED030A90ED010A82ED040A90ED1F
:1029B000020A82ED050A0A4A1160D16151609160F4
:1029C000916190ED030A82ED030A90ED040A82ED15
:1029D000040A90ED050A82ED050A704740060020C2
:1029E000600600200368591A4160914206DC524299
:1029F000914203DB00218161084670478269154BD3
:102A00000A4482619A4202DC5B429A4200DA8361A4
:102A100000EE101AD0ED030A90ED041AB8EEC00AC9
:102A200082688A1A20EE800AD0ED060AF8EEE00AE3
:102A300001EE200A00EE902A90ED051AF8EEE00A69
:102A400001EE200ABDEEC00A10EE102AC2618160BC
:102A500010467047808D5B0040F6C411884203D851
:102A60004FF4FA71884200D208467047044C20782F
:102A7000FC2801D000F014F8012000F047FFF6E731
:102A800086000020054D4FF0FF342146286801F0F4
:102A900039FE0128F9D1FDF761FFF6E78C0000202F
:102AA0002DE9F05F284D0024DFF8A090284EDFF8D4
:102AB000A4A0294FDFF8A4B0DFF8A4802C7000BFD9
:102AC000D9F8000000F0C0FA00EE100A2548B8EE70
:102AD000C00A86ED000ABDEEC00A10EE101A01F021
:102AE00035FA214801F00CFABAF90010C1EB0141A6
:102AF000014439601B48DBF80020FFF773FF01F049
:102B0000DFF9C8F8000001F0FFF900F0D7FA0A2059
:102B1000FEF76CFAFDF7FAFE0028D1D013480168E1
:102B20001348012904D0002900D10460BDE8F09FBA
:102B300029780029FAD10068BDE8F05F00231A4621
:102B4000194601F0E1BC000084000020780000205C
:102B50004C000020480000204000002044000020DD
:102B60003C000020400600205C0300207C00002088
:102B7000900000202DE9F047254C0020DFF89480DC
:102B8000254DDFF89890264EDFF898A0264F20704C
:102B900098ED000B00F034FA00EE100A2348B8EE6E
:102BA000C00A85ED000ABDEEC00A10EE101A01F051
:102BB000CDF91F4801F0A4F9B9F90010C1EB0141AA
:102BC000014431601948DAF80020FFF70BFF01F0EB
:102BD00077F9386001F0AAF900F0A6FA0520FEF7AF
:102BE00005FAFDF76BFE0028D2D0124800680128D4
:102BF0000BD12078002808D10F4800231A4600681E
:102C0000BDE8F047194601F07FBCBDE8F087000041
:102C10008500002070000020600000205C00002083
:102C200054000020580000205000002060060020C2
:102C30001C0400207C0000209400002010B55020CF
:102C400080F31188BFF34F8FBFF36F8F01F0B6FE93
:102C500018B104494FF080500860002080F31188BB
:102C600010BD000004ED00E030B593B0302168469F
:102C7000FDF752FB14210CA8FDF74EFB1948002567
:102C8000016841F080510160006800F080501190AF
:102C90001548016841F4804101600068022400F495
:102CA0008040119001200090000401908001CDE946
:102CB000064008AA0420A82182E813000B90684669
:102CC000FEF74CFC0CA90F2081E831004FF4A05016
:102CD0000F90E002109005210CA8FEF735FB13B011
:102CE00030BD0000403802400070004005480168D7
:102CF00041F47001016003494FF0006080390860C1
:102D00007047000088ED00E00148FEF7B4BF000006
:102D10005C0300200148FEF7AEBF00001C04002049
:102D20000148FEF7A8BF00009C050020F0B502682E
:102D3000254C264D264E274F274B4FF0804CA04266
:102D400009D0604507D0A84205D0B04203D0B842B0
:102D500001D0984204D122F0700E4A6842EA0E0275
:102D6000A0421BD0604519D0A84217D0B04215D060
:102D7000B84213D0984211D0184DA8420ED0184D29
:102D8000A8420BD0174DA84208D0174DA84205D035
:102D9000164DA84202D0164DA84203D122F4407528
:102DA000CA682A434D6922F080022A4302608A6879
:102DB000C2620A688262A04201D0984201D10969C8
:102DC000016301214161F0BD0000014000040040A9
:102DD00000080040000C0040000401400040014099
:102DE000004401400048014000180040001C004021
:102DF0000020004010B501F01F030121046A994032
:102E00008C430462016A9A401143016210BD10B5FF
:102E1000846842EA032224F47F440A432243826006
:102E200010BD826822F070020A4342F007018160FF
:102E300070470000F0B5026A22F001020262036AE4
:102E400042688469124E24F073050C682C4323F009
:102E500002058B682B430D4DA84201D0B04205D12D
:102E600023F00807CB683B4323F00403A84201D0BA
:102E7000B04205D14D6922F4407215438A692A4354
:102E800042608461496841630362F0BD0000014013
:102E900000040140F0B5026A22F010020262026AE8
:102EA000436884690D6824F4E64444EA05248D6887
:102EB00022F0200242EA05120F4D104EA84201D026
:102EC000B04206D1CF6822F0800242EA071222F017
:102ED0004002A84201D0B04207D14D6923F44063BB
:102EE00043EA85038D6943EA850343608461496849
:102EF00081630262F0BD0000000001400004014057
:102F0000F0B5026A22F480720262026A4368C46900
:102F100022F4007224F073050C68124E2C438D6865
:102F200042EA05220E4DA84201D0B04206D1CF6838
:102F300022F4006242EA072222F48062A84201D011
:102F4000B04207D14D6923F4405343EA05138D691C
:102F500043EA05134360C4614968C1630262F0BD7E
:102F6000000001400004014030B5026A22F48052A2
:102F70000262046A4268C3690D6823F4E64343EAC7
:102F800005238D6824F4005444EA0534084DA84212
:102F900002D0084DA84204D14D6922F4804242EA91
:102FA00085124260C36149680164046230BD00005B
:102FB000000001400004014010B5036A046A24F0D7
:102FC00001040462846924F0F00444EA021423F04A
:102FD0000A020A438461026210BD10B5036A23F03D
:102FE000100303628369046A23F4704343EA0232E4
:102FF00024F0A00343EA01118261016210BD0000C8
:1030000010B500F070FA9FED0C1B51EC100B53EC57
:10301000112BFDF730FAFDF723FB47F6E01148438B
:10302000FDF70DFB9FED061B53EC112BFDF798FAF6
:10303000BDE81040FDF714BB0000000000804040D8
:103040007FBDC282FB21094010B5FDF7F8FA9FED64
:103050000C1B53EC112BFDF783FA9FED0B1B53EC6C
:10306000112BFDF70BFAFDF733FB00EE100A0848B1
:1030700080ED000ABDEEC00A10EE100A10BD00007F
:10308000000000000080764000000000E0F61941DA
:103090004C000020074C0822207961790844A1796E
:1030A0000844E07103490448FFF792F9012000F059
:1030B0002DFCF0E7640000209C040020124810B5AD
:1030C000006801281FD111480068FDF7B8FA9FED8C
:1030D000101B53EC112BFDF7D1F99FED0F1B53EC97
:1030E000112BFDF73DFAFDF7F3FA00EE100A0C483C
:1030F000BDEEC00A016810EE100A08440949002814
:1031000000DCB430487110BD7C000020400000207D
:10311000000000000080764000000000E0F6194149
:1031200080000020640000200D4810B5006847F6BC
:10313000E011C0F1210090FBF1F0FDF780FA9FED66
:10314000091B53EC112BFDF70BFAFDF7C1FA00EE4A
:10315000100A0649BCEEC00A10EE100A887110BDB4
:10316000540000207FBDC282FB2109406400002082
:1031700010B5806B0021C185C184FEF780FF10BDB2
:1031800070B5846B2068406994F83910C0F3C010A2
:103190000025212904D118B1E584204600F062F809
:1031A0002068406994F83A10C0F38010222904D1B5
:1031B00018B1E585204600F047F8E06B40F01000BC
:1031C000E0632046FEF75BFF70BD10B50146806BE3
:1031D00009680968C90513D40021C1850168CA6856
:1031E00022F48072CA6001684A6922F001024A61D1
:1031F00001684A6922F040024A61202180F83A10B1
:10320000FFF7D4F810BD10B5806BFFF7DFF810BDE5
:1032100010B50146806B09680968C9050CD4002106
:10322000C18401684A6922F080024A610068C1686D
:1032300041F04001C16010BDFFF70AF910BD10B5A3
:10324000806BFFF706F910BD0168CA6822F490721E
:10325000CA6001684A6922F001024A61202180F8AF
:103260003A1070470168CA6822F0C002CA60202183
:1032700080F83910704710B590F83A10222901D023
:10328000022010BD8168B1F5805F11D0016900296D
:1032900001681FD0496801F07F03816A4A1C82627D
:1032A0000B70C18D491E0904090CC18518D02BE093
:1032B0000269816A002A0268526805D0D2B20A8087
:1032C000816A491C8162ECE7C2F308020A80816AC4
:1032D000891CF7E74A68816A4B1C83620A70E0E741
:1032E0000168CA6822F02002CA600168CA6822F434
:1032F0008072CA6001684A6922F001024A61202195
:1033000080F83A10FFF752F8002010BD2DE9F04187
:10331000044600680169E26821F4405111430161EB
:103320002169A068E2690843616911430843216883
:10333000CA6849F20C639A430243CA602068416933
:10334000A26921F4407111434161E06919276425A4
:103350003226B0F5004F354A354920684FF0000855
:1033600006D0884201D0904236D1FEF7B7F835E05A
:10337000884201D0904202D1FEF7B0F801E0FEF79A
:103380009DF861684A18A0FB070148EB0803FCF7A9
:1033900079FF0146B0FBF5F00201B1FBF5F06FF0EB
:1033A0001803584301EB800006EBC000B0FBF5F0BA
:1033B00000F0F80002EB4002B1FBF5F0584301EBDE
:1033C000800006EBC000B0FBF5F000F007002168BC
:1033D00010448860BDE8F081FEF770F861688B0FDB
:1033E0008A00A0FB0701FCF74DFF0146B0FBF5F09A
:1033F0006FF01802504301EB800006EB0010B0FBA9
:10340000F5F000F0F002B1FBF5F002EB0012B1FBB9
:10341000F5F06FF01803584301EB800006EB001045
:10342000B0FBF5F000F00F00D1E700000014014000
:103430000010014090F83910212901D00220704776
:103440008168B1F5805F016A0BD04A1C0262026894
:1034500009785160C18C491E0904090CC1840ED041
:1034600017E009880268C1F3080151600169002969
:10347000016A02D0491C0162ECE7891CFBE7016884
:10348000CA6822F08002CA600068C16841F0400149
:10349000C16000207047000008B50948FEF7F0FD44
:1034A000074800680168C943C90607D40168406835
:1034B0000090BDE808400248FEF76CBE08BD000061
:1034C0009C040020FEE70907090E002804DB00F138
:1034D000E02080F80014704700F00F0000F1E020B9
:1034E00080F8141D70472DED020B019820F000406C
:1034F00001909DED000B02B0704702E008C8121F5A
:1035000008C1002AFAD170477047002001E001C1CC
:10351000121F002AFBD17047FDF76AFEFFF7A4FBDC
:10352000FFF756F8FEF7DCFFFFF77AF9FFF7A8F888
:10353000FFF710FAFFF7D8F8FFF70EF9FFF7D4F905
:1035400027480068C16841F01001C1606422254924
:103550002348FEF7DFFE00212348FEF73FFD04214C
:103560002148FEF73BFD21486FF00104006804612B
:103570003C211E48FEF764FB1C48FEF733FA082185
:103580001948FEF72BFD0C211748FEF727FD1848B8
:10359000006804613C211648FEF752FB1448FEF710
:1035A00021FA00211348FEF719FD04211148FEF706
:1035B00015FD08210F48FEF711FD0C210D48FEF7FF
:1035C0000DFD00210C48FEF709FD0C48FFF7E0F95E
:1035D00000F01CF9FEF7A2FF00F09FF9FEE70000E3
:1035E0009C040020DC0500209C0300205C030020DC
:1035F0001C040020DC0300205C04002024000020C8
:1036000001460020842900D0C81C7047094910B524
:1036100040F2C4400860091D08604FF4FA70FDF7DD
:10362000E5FC044940F2DC5008390860401F091DE0
:10363000086010BD3C0800402DE9F041144C40F2F8
:10364000EE202060251D28604FF496784046FDF757
:10365000CDFC0F4E4FF4E160083E3060401F271F45
:1036600038604046FDF7C2FC40F2C440206028604C
:103670004FF4C870FDF7BAFC40F21A403060401FAA
:103680003860BDE8F0414FF47A70FDF7AFBC000040
:103690003C0800402DE9F041144C40F2EE2020603F
:1036A000251D28604FF496784046FDF79FFC0F4E8D
:1036B00040F22670083E3060401F271F38604046A9
:1036C000FDF794FC40F27E40206028604FF4C87003
:1036D000FDF78CFC40F21A403060401F3860BDE8B6
:1036E000F0414FF47A70FDF781BC00003C080040C7
:1036F000094910B540F2C4400860091D08604FF444
:10370000FA70FDF773FC04494FF4B460083908609F
:10371000401F091D086010BD3C0800402DE9F04124
:103720001B4E4FF496603060371D38604FF4C87000
:10373000FDF75CFC164C40F23250083C2060401F04
:10374000251D2860C820FDF751FC4FF461703060E2
:1037500038604FF4BE602060401F2860C820FDF72D
:1037600045FC4FF4E1602060401F2860C820FDF751
:103770003DFC40F2C440306038604FF4FA70FDF711
:1037800035FC40F21A402060401F2860BDE8F081FF
:103790003C0800402DE9F0411B4E40F21E503060C5
:1037A000371D38604FF4C870FDF720FC164C40F20E
:1037B0003250083C2060401F251D2860C820FDF7BE
:1037C00015FC4FF42F70306038604FF4BE602060FD
:1037D000401F2860C820FDF709FC4FF4E16020601D
:1037E000401F2860C820FDF701FC40F27E40306099
:1037F00038604FF4FA70FDF7F9FB40F21A40206090
:10380000401F2860BDE8F0813C08004010B500F082
:1038100005F8BDE81040FEF71FBE00002DE9F04797
:10382000144D4FF4FA742C602E1D3460114F40F289
:103830001A49083FC7F80090A5F1040840F2154A5C
:10384000C8F800A02046FDF7D1FB40F27E4028607A
:10385000306040F214503860411FC8F8001060001A
:10386000FDF7C4FB2C603460C7F80090C8F800A0D6
:10387000BDE8F0873C08004003494FF4FA70086047
:10388000091D0860704700003C08004003494FF4E0
:10389000FA700860091D0860704700003C0800408D
:1038A00007494FF4FA700860091D0860044940F2A6
:1038B0001A4008390860401F091D08607047000061
:1038C0003C08004070470000074B10B518681A1DEF
:1038D00014683238FFF7C0F81860A4F13200FFF71F
:1038E000BBF8106010BD000034080040064940F2EB
:1038F0001A400860401F091D0860091D4FF4FA7046
:103900000860091D086070473408004010B500B910
:10391000012000F00BFC002010BD10B500F0A6FC4B
:10392000002010BD7FB50D4604464169B0F908007E
:1039300081B1A16971B1FFF763FED4E905128DE889
:103940000700D4E900102B46226900F0FEFF039027
:1039500004B070BDFFF754FE03A9CDE90001208A31
:103960002B4682B2D4E9001000F0C2FF012801D03A
:103970000020EDE70398EBE72DE9F041184C0F46E6
:10398000054666692068001D00F0E2FA38B9206833
:1039900090F82C1001208840A1698143A161681C26
:1039A00007D137B12168BDE8F0410E48091D00F08C
:1039B00013BB20683544B5424560216805D2A06834
:1039C000BDE8F041091D00F0EFBA6068091D00F084
:1039D000EBFA206B854200D22563BDE8F081000040
:1039E000A80000205C0700202DE9F041054600F00A
:1039F000FFFA2E4C2069401C206120682C4F10B12A
:103A0000E06940B32DE025602069012829D1002616
:103A100006EB860007EB800000F0B8FA761C072E54
:103A2000F6D323488C3000F0B1FA2148A03000F0E2
:103A3000ADFA1F48B43000F0A9FA1D48C83000F0B4
:103A4000A5FA1B48DC3000F0A1FA19488C30606000
:103A50001430A06005E02068E96AC06A884200D896
:103A60002560E06A401CE062E96A0120A2698840A2
:103A70001043A06101EB810007EB8000291D00F0DD
:103A8000ABFA00F0D5FAE06900280CD02068E96AAA
:103A9000C06A884207D207494FF080500860BFF3E0
:103AA0004F8FBFF36F8FBDE8F0810000A8000020AA
:103AB0008006002004ED00E02DE9F041856B1746FB
:103AC00004460026026C82B1C7B1E068FCF70BFC2B
:103AD000E168206C091AE1602268914202D2A16873
:103AE000081AE060022F16D017E02068A8B9A06875
:103AF00000F0C8FF06460020A0600EE06068FCF7FA
:103B0000F2FB216C606808446060A168884204D3BD
:103B10002068606001E005B16D1E6D1CA563304634
:103B2000BDE8F08110B5044690F8510058B1012865
:103B30000CD002280FD0502080F31188BFF34F8F94
:103B4000BFF36F8FFEE7206B00F086FA2046BDE8DA
:103B5000104000F081BA10BD10484FF47051420778
:103B600006D0C01D0D4920F00700411AC1F5705163
:103B70000B4A00230144C2E900030839103A21F03E
:103B8000070111604B600B600B1AC0E900139360D2
:103B90004FF000405360D060704700007007002075
:103BA000F4000020144E154CA6F1C8074FF08058C1
:103BB000DFF84C9012E000BF00F01AFAF068C56818
:103BC000281D00F0C5F92069401E2061E068401EF4
:103BD000E06000F02DFA2846FFF7A4FFE068002817
:103BE000EAD138680128F9D9C9F80080BFF34F8FAE
:103BF000BFF36F8FF2E7000048070020A800002005
:103C000004ED00E00346009829B10260C0E90F31DD
:103C1000012100F035BC0060F8E72DE9F0479A4635
:103C2000DDE9098481466FF00303206B03EB820218
:103C30001044089E20F00707780707D0502080F333
:103C40001188BFF34F8FBFF36F8FFEE7002561B17F
:103C5000002023180A5C83F834200A5C12B1401C4F
:103C60001028F6D384F8435001E084F83450072E2E
:103C700000D30626E662C4E91165201D00F091F923
:103C800004F1180000F08DF92461C6F107006462A8
:103C9000A061E56484F8505052464946384600F029
:103CA00019F92060B8F1000F01D0C8F80040BDE854
:103CB000F087000030B5114900E011460A688242E1
:103CC000FBD34B685C18844203D1406818444860B9
:103CD000084643681C18944209D1084C103C2468DB
:103CE000A24209D052681A4442600A68126802600F
:103CF000814200D0086030BD0460F9E7F400002084
:103D000010B5044600F074F9A06B28B15FF0000410
:103D100000F08EF9204610BD0124F9E706484168FD
:103D2000096829B14168C968C96849680163704771
:103D30004FF0FF31FAE70000A80000200848406873
:103D4000401C4FF0500080F3118804D0BFF34F8F18
:103D5000BFF36F8FFEE7BFF34F8FBFF36F8FFEE7A9
:103D6000FC0000202DE9F041044600F041F994F9EF
:103D7000455004F1240609E0606A48B1304600F07D
:103D800017FF08B100F000FA6D1E6DB2002DF3DCD4
:103D90004FF0FF3684F8456000F04AF900F028F94A
:103DA00094F9445004F1100709E0206948B13846FD
:103DB00000F0FEFE08B100F0E7F96D1E6DB2002DB7
:103DC000F3DC84F84460BDE8F04100F031B9000054
:103DD0002DE9F0410546002700F07EFA314E3068AB
:103DE00008B9FFF7B9FEF06805424BD1C5B30835F5
:103DF00068070ED005F00700C0F108000544680709
:103E000007D0502080F31188BFF34F8FBFF36F8F1F
:103E1000FEE72DB37068854234D822481030014641
:103E20000C6801E020460C466168A94202D2216874
:103E30000029F7D131688C4224D0076821680160DD
:103E400060680837411B10290FD96019420708D054
:103E5000502080F31188BFF34F8FBFF36F8FFEE7C1
:103E600010E041606560FFF725FF61687068401AE7
:103E70007060B268904200D2B060F06801430020E8
:103E8000C4E9000100F0CEFE780707D0502080F38F
:103E90001188BFF34F8FBFF36F8FFEE73846BDE841
:103EA000F0810000E40000200449086818B10868A7
:103EB000826C521C8264086870470000A8000020D1
:103EC00042F21071884202DC4942884200DA084618
:103ED0007047000010B5031F4FF080741C601B1F5B
:103EE00021F001011960191F044B0B6014390A609D
:103EF000091F6FF0020244380A6010BD3D3D000802
:103F00000068406A70470000074900230A1D002826
:103F100002DD0B601060704703DAC0F1000008603A
:103F200000E00B6013607047340400400649002332
:103F30000A1D002802DD0860136070470B60FBDA81
:103F4000C0F10000106070473C0400400160704701
:103F5000D0E9013201699A60D0E901235A604A68C8
:103F6000824201D182684A60002202610868401ED4
:103F70000860086870470000034B036003F15400B9
:103F800008608020106070470801002000F10801DF
:103F90004FF0FF32C0E90112C160016100210160F0
:103FA000704700210161704730B50B685A1C02D080
:103FB00000F1080202E0026904E022465468256824
:103FC0009D42FAD953684B6099608A6051600861DC
:103FD0000168491C016030BD42684A6093688B608B
:103FE00093685960916008610168491C01607047DD
:103FF000502080F31188BFF34F8FBFF36F8F0A49B2
:104000004868401C486001280CD10848006810F03E
:10401000FF0F07D0502080F31188BFF34F8FBFF3FD
:104020006F8FFEE770470000FC00002004ED00E009
:104030000849486828B1401E486001D180F31188C2
:104040007047502080F31188BFF34F8FBFF36F8FFD
:10405000FEE70000FC00002070B5002827D0144DBA
:10406000A0F108046168E868014207D1502080F39C
:104070001188BFF34F8FBFF36F8FFEE722683AB10D
:10408000502080F31188BFF34F8FBFF36F8FFEE78F
:104090008143616000F020F96068696808446860E5
:1040A0002046FFF707FEBDE8704000F0BBBD70BDC5
:1040B000E40000204FF0E02000210161816105490A
:1040C0004FF47A720968B1FBF2F1491E4161072190
:1040D00001617047A400002010B5FCF7BDF811493C
:1040E00010280ED300F1E02090F8F0030A789042F7
:1040F00007D2502080F31188BFF34F8FBFF36F8F2B
:10410000FEE709480068896800F4E060884207D942
:10411000502080F31188BFF34F8FBFF36F8FFEE7FE
:1041200010BD0000FC0000200CED00E010B5020006
:1041300014D00F48806B38B1502080F31188BFF342
:104140004F8FBFF36F8FFEE700F0C6F800211046D7
:10415000FFF712FC00F066FD002807D105494FF07B
:1041600080500860BFF34F8FBFF36F8F10BD00000A
:10417000A800002004ED00E002498A6A0260496953
:1041800041607047A8000020014901204862704743
:10419000A800002010B50C4650B109490968183133
:1041A000FFF702FF2046BDE810400121FFF7E4BB06
:1041B000502080F31188BFF34F8FBFF36F8FFEE75E
:1041C000A800002070B504004BD0A26CA2B1606CB6
:1041D000884200D30146E06A884242D0012A40D199
:1041E000204D2A6894420FD1502080F31188BFF3EC
:1041F0004F8FBFF36F8FFEE7502080F31188BFF31E
:104200004F8FBFF36F8FFEE7E162A269002A02DBE6
:10421000C1F10701A161144E00EB8000616906EB5A
:10422000800081421DD1201DFFF792FE012150B96F
:10423000E06A00EB800256F8222022B9AA6901FA4E
:1042400000F08243AA61E06AAA6981401143A96132
:1042500000EB800006EB8000211DBDE87040FFF7F9
:10426000BBBE70BDA80000208006002010B586B03F
:104270000024039405AA04A903A80494FFF77CFE74
:10428000DDE903010094CDE9011000230EA11048DF
:10429000059A00F05AFB0F490028486311D05020BE
:1042A00080F31188BFF34F8FBFF36F8F4FF0FF3054
:1042B00008630120C8614C6106B0BDE8104000F001
:1042C00041B806B010BD000049444C450000000054
:1042D000A53B0008A80000200248816B491C8163AF
:1042E00070470000A80000201448816B11B1012123
:1042F00041627047002141628169B1FA81F1C1F1E7
:104300001F0101EB81020E4951F822306BB101EB24
:10431000820101F108034A6852684A609A4201D159
:1043200052684A60D16801607047502080F311885C
:10433000BFF34F8FBFF36F8FFEE70000A800002090
:10434000800600201CB537480168374A914207D1E2
:10435000502080F31188BFF34F8FBFF36F8FFEE7BC
:1043600000683149491E884207D1502080F31188E6
:10437000BFF34F8FBFF36F8FFEE72C490878019092
:10438000FF20087008788DF800009DF800009DF867
:10439000002000F0F000904207D0502080F31188F8
:1043A000BFF34F8FBFF36F8FFEE79DF80000204BE8
:1043B00000F0500018700720986005E09DF800207C
:1043C00052008DF80020401E9DF800201206F5D402
:1043D0009860032807D0502080F31188BFF34F8FD7
:1043E000BFF36F8FFEE74FF440709860019808703C
:1043F0000C482030016841F470010160016841F00F
:1044000070410160FFF756FE00205860FBF7ECFE9C
:104410000848016841F040410160FBF7D1FE0020EF
:104420001CBD000000ED00E071C20F4100E400E09F
:10443000FC00002034EF00E0F8B517460E460500FA
:1044400014D0DEB105FB06F04830FFF7C1FC0400D4
:104450000AD0002084F8460004F148023B46314669
:1044600028460094FFF7CEFB2046F8BD502080F38D
:104470001188BFF34F8FBFF36F8FFEE70020E3E794
:1044800070B50D46040025D0FFF7B2FDD4E90F202A
:10449000216802FB0011A1600021A1632168616015
:1044A0000A46D4E90F01401E00FB0121E1602146CC
:1044B0004FF0FF3001F8440F487004F110008DB147
:1044C000FFF764FD04F12400FFF760FDFFF7B0FD86
:1044D000012070BD502080F31188BFF34F8FBFF3D0
:1044E0006F8FFEE721690029F0D000F061FB002802
:1044F000ECD004494FF080500860BFF34F8FBFF3FA
:104500006F8FE3E704ED00E02DE9FF4782B01D4621
:104510008A464FF00008040003D0BAF1000F08D01B
:1045200011E0502080F31188BFF34F8FBFF36F8FDE
:10453000FEE7206C38B1502080F31188BFF34F8F15
:10454000BFF36F8FFEE7022D0AD1E06B012807D081
:10455000502080F31188BFF34F8FBFF36F8FFEE7BA
:1045600000F01EFA3F4F4FF000094FF0805648B957
:10457000049838B1502080F31188BFF34F8FBFF3F8
:104580006F8FFEE7FFF734FDA06BE16B884207D326
:10459000022D05D00498D0B1B8F1000F1AD01EE05A
:1045A0002A4651462046FFF787FA616A19B104F19D
:1045B000240000F0FDFA20B13E60BFF34F8FBFF33F
:1045C0006F8FFFF735FD012006B0BDE8F087FFF7DC
:1045D0002FFD22E06846FFF7CFFD4FF00108FFF7FF
:1045E00027FDFFF779FEFFF703FD94F94400401C17
:1045F00001D184F8449094F94500401C01D184F81D
:104600004590FFF715FD04A9684600F037F930B171
:104610002046FFF7A7FB00F005FB0020D4E7FFF7DB
:10462000E7FCA06BE16B884213D1FFF701FD04F1B9
:1046300010000499FFF7AEFD2046FFF793FB00F052
:10464000F1FA00289ED13E60BFF34F8FBFF36F8F0A
:1046500098E7FFF7EDFC2046FFF784FB00F0E2FA55
:1046600090E7000004ED00E070B50E46040009D0AC
:10467000206C78B1502080F31188BFF34F8FBFF3C7
:104680006F8FFEE7502080F31188BFF34F8FBFF389
:104690006F8FFEE7206848B9A06838B1502080F3DA
:1046A0001188BFF34F8FBFF36F8FFEE7FFF714FD45
:1046B0005020EFF3118580F31188BFF34F8FBFF3C4
:1046C0006F8FA16BE06B884218D994F94500491CA3
:1046D000A163411C04D0401C84F8450001200EE079
:1046E000606A0028FAD004F1240000F061FA002882
:1046F000F4D0002EF2D001203060EFE7002085F3E7
:10470000118870BD2DE9F343002683B004003546BF
:1047100009D0206C78B1502080F31188BFF34F8FFF
:10472000BFF36F8FFEE7502080F31188BFF34F8FE8
:10473000BFF36F8FFEE700F033F9DFF83C814FF0F5
:1047400000094FF0805748B9049838B1502080F3E1
:104750001188BFF34F8FBFF36F8FFEE7FFF748FC61
:10476000A06BC8B1401EA063206810B9FFF79CFB86
:10477000A060206950B104F1100000F019FA28B1CE
:10478000C8F80070BFF34F8FBFF36F8FFFF750FC77
:10479000012005B0BDE8F083049808B166B10FE0D0
:1047A0003DB1502080F31188BFF34F8FBFF36F8F5F
:1047B000FEE7FFF73DFC5DE06846FFF7DDFC012604
:1047C000FFF736FCFFF788FDFFF712FC94F9440071
:1047D000401C01D184F8449094F94500401C01D15B
:1047E00084F84590FFF724FC04A9684600F046F8D9
:1047F0000028204612D0FFF7B5FA00F013FA204641
:10480000FFF77EFA0028A9D09DB3FFF7F1FB606A9D
:1048100050B3206B0068C0F1070126E0FFF770FA83
:10482000E0B1206838B9FFF7E3FBA06800F076F943
:104830000546FFF7FDFB04F124000499FFF7AAFCED
:104840002046FFF78FFA00F0EDF9002886D1C8F86E
:104850000070BFF34F8FBFF36F8F7FE72046FFF7E6
:1048600081FA00F0DFF979E70021A068FFF7AAFCE0
:104870009FE7FFE700208CE704ED00E02DE9F04121
:104880000C46050011D0C4B1FFF7B2FB174B5A69B3
:104890006E682068911B471C17D02F689B6A9F4247
:1048A00019D0964217D8012410E0502080F31188C7
:1048B000BFF34F8FBFF36F8FFEE7502080F3118857
:1048C000BFF34F8FBFF36F8FFEE70024FFF7B0FBFE
:1048D0002046BDE8F081884205D9401A206028466C
:1048E000FFF74AFCF1E700202060DCE7A800002089
:1048F0002DE9FF5F8346DDE90E87994616468A4615
:104900009000FFF765FA05001CD05420FFF760FA0D
:10491000040014D00020256384F85100CDE9024042
:10492000CDE900874B46324651465846FFF775F9A8
:104930002046FFF759F8012004B0BDE8F09F284653
:10494000FFF78AFB4FF0FF30F6E7F0B585B0DDE901
:104950000B640A9DA6B1DCB154270097266302269A
:1049600084F85160002604AFCDE90246CDE9005736
:10497000FFF753F92046FFF737F8049805B0F0BD6C
:10498000502080F31188BFF34F8FBFF36F8FFEE786
:10499000502080F31188BFF34F8FBFF36F8FFEE776
:1049A0000548C16919B1806B18B10020704701201A
:1049B0007047022070470000A80000202DE9F04158
:1049C0002E4C0027A06B40B1206A401C2062606A18
:1049D00000B101273846BDE8F0816669761C666142
:1049E00013D16068006838B1502080F31188BFF39C
:1049F0004F8FBFF36F8FFEE76068A1686160A060B2
:104A0000A06A401CA062FFF789F9206BDFF8708074
:104A1000864209D36068006880B16068C068C56874
:104A2000686886420DD220632068C06A00EB80016E
:104A300058F821000128CAD90127C8E74FF0FF30F4
:104A4000F1E7281DFFF784FAA86A18B105F11800EC
:104A5000FFF77EFAE86A0121A26981401143A16152
:104A600000EB800108EB8100291DFFF7B5FAE86A29
:104A70002168C96A8842CDD30127CBE7A80000206E
:104A80008006002070B504004FF0000140D0214D99
:104A90002868844207D0502080F31188BFF34F8FDD
:104AA000BFF36F8FFEE7A06C38B1401EA064636C4B
:104AB000E26A9A422CD040B12AE0502080F311885B
:104AC000BFF34F8FBFF36F8FFEE7201DFFF740FA54
:104AD000114A012150B9E06A00EB800352F82330FB
:104AE00023B9AB6901FA00F08343AB61606CE0620B
:104AF000C0F10700A061E06AAB6981401943A96178
:104B000000EB800002EB8000211DFFF765FA012118
:104B1000084670BDA80000208006002070B5040083
:104B20004FF0000038D0204DE16A2A68D26A9142E5
:104B300033D2A069002804DB2868C06AC0F10700EE
:104B4000A0611A4E01EB8101606906EB8101884288
:104B50001ED1201DFFF7FCF9012150B9E06A00EBDE
:104B6000800256F8222022B9AA6901FA00F0824395
:104B7000AA612868C06AE062AA6981401143A961FC
:104B800000EB800006EB8000211DFFF725FA02E014
:104B90002868C06AE062012070BD616C2A68D26A30
:104BA0009142F8D370BD0000A800002080060020CC
:104BB0002DE9F041C068C468ACB104F118000746A3
:104BC000FFF7C6F9154DA86B0126A0B13946144868
:104BD000FFF702FAE06A2968C96A88421CD90120F5
:104BE0006E62BDE8F081502080F31188BFF34F8FD3
:104BF000BFF36F8FFEE7201DFFF7AAF9E16AAA69EC
:104C000006FA01F01043A86101EB81000449B439B0
:104C100001EB8000211DDBE70020E2E7A800002077
:104C2000340700202DE9F0472C4D00242746A86BBF
:104C300038B1FFF7DDF9A86B401EA863A86B40B13F
:104C400046E0502080F31188BFF34F8FBFF36F8F82
:104C5000FEE72969224E0120D1B3A6F1B4098046AE
:104C60003068E8B1F068C46804F11800FFF770F923
:104C7000201DFFF76DF9E06AAA6908FA00F11143F7
:104C8000A96100EB800109EB8100211DFFF7A4F968
:104C9000E06A2968C96A8842E2D3C5F82480DFE760
:104CA0000CB1FFF73BF82C6A44B14646FFF786FE8D
:104CB00000B16E62641EF9D100202862686A38B1C2
:104CC0000849012738070860BFF34F8FBFF36F8F84
:104CD000FFF7AEF93846BDE8F0870000A8000020D5
:104CE0003407002004ED00E0C44D0008852A0008C8
:104CF0000000000000000000800000000000000034
:104D000000000000944D00086D2A0008FDFF00001F
:104D10000000000080000000000000000000000013
:104D2000A04D0008C9240008FDFF0000000000009D
:104D3000800000000000000000000000AC4D0008F2
:104D4000C90B0008FDFF000000000000800000000B
:104D50000000000000000000B84D00089530000879
:104D6000FDFF0000000000008000000000000000C7
:104D700000000000000610160006101600000000DB
:104D800000000000010203040607080900000000FB
:104D9000010203046D795461736B3032000000002E
:104DA0006D795461736B3033000000006D7954618C
:104DB000736B3034000000006D795461736B3035D3
:104DC0000000000064656661756C745461736B006B
:104DD000F04D00080000002008010000FA3400082F
:104DE000F84E000808010020684600000A35000857
:104DF00000000000000000000000000000000000B3
:104E000000000000000000000000000000000000A2
:104E1000000000000000E0400AD7A33B00008C42E5
:104E20006666E64052499D390000C8420000000015
:104E300000000000E8030000000000000000000087
:104E40000000000000000000E80300000000000077
:104E500000000000535A4859FF00201A00000000CB
:104E60000000000000804040000000000000000042
:104E70000000000000000000000000000000000032
:104E80000000000000000000010000001000000011
:104E9000000000000024F4000000000000000000FA
:104EA0000000000000000000000000000000000002
:104EB00000000000000000000000000000000000F2
:104EC00000000000000000000000000000000000E2
:104ED00000000000000000000000000000000000D2
:104EE00000000000000000000000000000000000C2
:084EF000AAAAAAAA0000000012
:040000050800018965
:00000001FF
