:020000040800F2
:1000000070470020610200082F2A000829250008F7
:100010002D2A0008E90800088134000800000000CB
:10002000000000000000000000000000A101000826
:10003000490C000800000000FD010008D52C000854
:100040007B0200087B0200087B0200087B0200089C
:100050007B0200087B0200087B0200087B0200088C
:100060007B0200087B0200087B0200087B0200087C
:100070007B0200087B0200087B0200087B0200086C
:100080008D0B0008990B00087B0200087B0200081A
:100090007B0200087B0200087B0200087B0200084C
:1000A0007B020008A12D00087B0200087B020008EB
:1000B0007B0200087B0200087B0200087B0200082C
:1000C0007B0200087B0200087B0200087B0200081C
:1000D0007B0200087B020008553400087B02000800
:1000E0007B0200087B0200087B0200087B020008FC
:1000F0007B020008B92D00087B0200087B02000883
:100100007B0200087B020008AD2D00087B0200087E
:100110007B0200087B0200087B0200087B020008CB
:100120007B0200087B0200087B0200087B020008BB
:100130007B0200087B0200087B0200087B020008AB
:100140007B0200087B0200087B0200087B0200089B
:100150007B0200087B0200087B0200087B0200088B
:100160007B0200087B0200087B0200087B0200087B
:100170007B0200087B0200087B02000800000000F0
:100180007B0200087B020008DFF810D000F09AFB29
:1001900000480047D5340008AFF3008070470020C6
:1001A0002C4B19680868B0E8F04F80F30988BFF35A
:1001B0006F8F4FF0000080F311887047000000003F
:1001C00008480068006880F308884FF0000080F35A
:1001D000148862B661B6BFF34F8FBFF36F8F00DF35
:1001E00000BF00BF08ED00E0DFF80C00016841F43B
:1001F00070010160704700BF88ED00E0EFF30980F7
:10020000BFF36F8F134B1A681EF0100F08BF20ED5D
:10021000108A20E9F04F106009B44FF0500080F3CD
:100220001188BFF34F8FBFF36F8F03F003FF4FF0C1
:10023000000080F3118809BC19680868B0E8F04F25
:100240001EF0100F08BFB0EC108A80F30988BFF3CE
:100250006F8F7047A8000020EFF305807047000003
:100260000648804706480047FEE7FEE7FEE7FEE750
:10027000FEE7FEE7FEE7FEE7FEE7FEE7852D000866
:10028000890100082DE9F05F0546002092469B4653
:1002900088460646814640241BE02846414647469C
:1002A000224600F058FA53465A46C01A914110D3DC
:1002B00011461846224600F03FFA2D1A67EB010856
:1002C0004F4622460120002100F036FA17EB0009C4
:1002D0004E41201EA4F10104DFDC484631462A4687
:1002E0004346BDE8F09F40EA01039B0703D009E0C5
:1002F00008C9121F08C0042AFAD203E011F8013B12
:1003000000F8013B521EF9D27047D2B201E000F86A
:10031000012B491EFBD270470022F6E710B51346A9
:100320000A4604461946FFF7F0FF204610BD2DE9A6
:10033000FE4F804681EA0300C00F0C46009021F07A
:10034000004123F00045B8EB0200A94105D2404628
:10035000214690461C460B46024623F000401043BF
:1003600047D0270DC7F30A00C3F30A510290401A81
:10037000019040286BDAC3F3130040F4801B00980F
:10038000924620B10023D2EB030A63EB0B0B0198DA
:100390005946C0F14002504600F0CEF906460D46DF
:1003A00050465946019A00F0E6F910EB0800614109
:1003B000002487EA115284EAE7731A4340D0009A76
:1003C00062B3019A012A4FEA075215DC001B61EB68
:1003D00002014FF0004202EA0752CDE90042001C40
:1003E00041F5801132462B4600F01DFA03B0BDE8FE
:1003F000F08F40462146F9E7001B61EB0201001C2B
:1004000041F5801300185B412018A2F5001747EB57
:10041000030140EAD570B6196D4111E06D084FEA4D
:10042000360645EAC0754FEA0752001B61EB020130
:10043000001C41F5801149084FEA30000019514174
:1004400032462B4603B0BDE8F04F00F0DDB900980E
:10045000012240000023D0EB020263EBE07300981E
:1004600021464FEAE074B8EB000061EB0401E9E7D4
:1004700083F000435BE781F0004158E72DE9FE4F30
:1004800081EA030404F0004421F0004100944FF09D
:10049000000B23F0004350EA01045ED052EA03044B
:1004A0005BD0C3F30A54C1F30A552C44A4F2F334CD
:1004B0000194A0FB0254C1F3130141F48011C3F372
:1004C000130343F4801301FB024400FB034E840A30
:1004D000970A44EA815447EA8357A4FB07680295C8
:1004E0008D0A05FB07854FEA932C04FB0C54270566
:1004F000029D4FEA065847EA1637B5EB08056EEB42
:10050000070C870E920E47EA811742EA8312A7FB77
:100510000201B6EB0B0164EB00042B0D43EA0C3334
:100520005E1844EB1C50DA465146E7FB0201C5F366
:1005300013044FEA0B3343EA14534FEA0432019C8D
:1005400043EA0603A4F10C040294009CCDE900B434
:1005500000F069F903B0BDE8F08F00200146F9E72B
:100560002DE9F04D81EA030404F0004B21F0004531
:1005700014464FF0000A23F0004150EA050220D053
:1005800054EA01021DD0C5F30A570246C5F313030E
:10059000C1F31300C1F30A5640F4801543F48013ED
:1005A000A7EB0608101BD64608F2FD3873EB0500D2
:1005B00002D308F1010801E092185B41B8F1000F85
:1005C00003DA00200146BDE8F08D00204FF48011D1
:1005D000064684460EE0171B73EB050705D3121B76
:1005E00063EB050306434CEA010C49084FEA30006F
:1005F00092185B4150EA0107EDD152EA030012D094
:1006000082EA040083EA0501084305D0101BAB41D0
:1006100006D20122002306E000224FF0004302E050
:100620006FF0010253101AEB06004CEB085110EB6F
:100630000A0041EB0B01BDE8F04D00F0E5B80EB546
:10064000C10F80EAE0700844CA07002140F233433A
:100650008DE80E000A460B4600F0E5F803B000BD39
:1006600070B5C1F30A5201F000450024C1F3130133
:1006700040F2FF3341F480119A4201DA002070BD4C
:1006800040F233439A42A2F2334203DC524200F07A
:1006900062F800E090402C43F1D0404270BDC1F3BD
:1006A0000A5210B5C1F3130140F2FF3341F4801137
:1006B0009A4201DA002010BD40F233439A42A2F27E
:1006C000334203DC524200F046F810BD904010BDAA
:1006D00030B5041E71F1000404DB4FF000444042C9
:1006E00064EB0101141E73F1000405DB1C464FF09E
:1006F0000043524263EB04038B4208BF824230BD89
:1007000001F0004330B421F0004150EA010206D06C
:100710000A0DA2F56072C1F31301002A02DC30BC9D
:1007200000207047440F44EAC104C100E01830BC07
:1007300000EBC25000F031B8202A04DB203A00FA66
:1007400002F1002070479140C2F1200320FA03F328
:10075000194390407047202A04DB203A21FA02F026
:100760000021704721FA02F3D040C2F120029140EB
:10077000084319467047202A06DBCB17203A41FA76
:1007800002F043EAE07306E041FA02F3D040C2F11E
:10079000200291400843194670470029A8BF7047BE
:1007A000401C490008BF20F00100704710B4B0FAA7
:1007B00080FC00FA0CF050EA010404BF10BC704742
:1007C00049B1CCF1200421FA04F411FA0CF118BF5C
:1007D000012121430843A3EB0C01CB1D4FEA00612B
:1007E0004FEA102042BF002010BC704700EBC350FE
:1007F00010440029A4BF10BC7047401C490008BF2A
:1008000020F0010010BC704710B5141E73F10004F5
:1008100008DA401C41F1000192185B411A4301D1F2
:1008200020F0010010BD2DE9F04D92469B4611B11C
:10083000B1FA81F202E0B0FA80F220329046FFF77E
:100840007BFF04460F4640EA0A0041EA0B0153468B
:100850005A46084313D0114653EA010019D0C8F193
:1008600040025046FFF777FF05460E465046594670
:100870004246FFF761FF084305D0012004E020460F
:100880003946BDE8F08D0020054346EAE0762C436A
:1008900037430A986305E40AA0EB08000022FD0A2A
:1008A00044EA47540A3002D500200146E9E7010531
:1008B00010196941DDE9084500196941BDE8F04DAD
:1008C000A2E70000064C074D06E0E06840F0010397
:1008D00094E8070098471034AC42F6D3FFF758FC71
:1008E000A8440008C8440008FEE7000010B502F064
:1008F000D8FD9FED0C1B51EC100B53EC112BFFF7A7
:10090000BAFDFFF7ADFE47F6E0114843FFF797FE4B
:100910009FED061B53EC112BFFF722FEBDE81040A4
:10092000FFF79EBE00000000008040407FBDC282F5
:10093000FB21094030B5104900204A680F494B6837
:10094000D41A0A340346142C0CD8002A01DB1446AE
:1009500000E054420A4D2D68AC4203DC0C68641C74
:100960000C6000E00B604A600A680A2A02DB0B6038
:1009700001204B6030BD0000400600201400002024
:10098000440000202DE9F05F5E49087801287CD101
:10099000002420460C7000F0EBF9411C75D05A4938
:1009A0000A18107992F80580917900EB08054B1C24
:1009B0002B44564DDBB22B70D2799A4266D1DFF8C8
:1009C00050B1544A544B554F554D0126FE2806D080
:1009D000FC281CD091461279FF2A1DD081E01870A6
:1009E00010719FED500A50483C608BED000A048066
:1009F0004E4844624E4806604E4806604E489FEDA1
:100A00004F0B066085ED000B2120907169E0187096
:100A1000107101F08BFD64E018704A489A4680F826
:100A200000804948017048B248490870FFF707FE46
:100A30009FED471B53EC112BFFF792FD9FED461BDB
:100A400053EC112BFFF71AFD41EC100B85ED000B59
:100A50009FED431BC7F8008053EC112BFFF738FEC6
:100A60000BD2386848B1B438386095ED000B51ECC2
:100A7000100B81F00041C5E900013868FFF7DFFD88
:100A80009FED391B53EC112B01E038E02DE0FFF70F
:100A900067FD9FED371B53EC112BFFF7EFFCFFF7C2
:100AA0002FFECBF8000020480480204844622048F4
:100AB000314906601F4804601F4804609AF800002E
:100AC00089F8040099F8050008602C4999F8060097
:100AD0004C46086095ED000B51EC100BFFF7DFFD65
:100AE000A071274806702748067064210648FFF762
:100AF00013FC25480068016821F001010160BDE890
:100B0000F09F000074000020DC050020950000200C
:100B10004C0000206C00002092000020800000208B
:100B20007800002000000000480000200000014084
:100B30008400002050000020680000200000000019
:100B40000080404093000020940000209600002088
:100B50000000000000C05F40000000000080414035
:100B6000000000000000000000000000008076404F
:100B700000000000E0F61941880000208C000020F1
:100B80009000002091000020DC040020014800F0CB
:100B900027B90000DC040020014800F021B9000062
:100BA0003C05002001681823CAB2103AB2FBF3F2E8
:100BB000054B6FF30901032A9B5CC36500D9091D2E
:100BC00081650846704700004C44000810B5014696
:100BD00000208B698A6A4FF0C07453B1B3F5005F8F
:100BE00015D072B1012A0CD0022A0AD0032A09D1E9
:100BF00004E01AB1012A06D0022A03D1C96AC90148
:100C000000D5012010BDC96AA142FAD010BD002A4A
:100C1000F7D0012AF2D0022AF3D0032AF3D010BD74
:100C200030B50468256825F4802525600468636074
:100C30008368402B036803D099600068C26030BDB0
:100C40009A600068C16030BD70470000DFF8049111
:100C5000414F424E424C434D09F1040A4FF0000807
:100C60004FF0FF0B3878052803D03168012924D0D4
:100C70006BE03068012868D1206810B1012809D0E4
:100C800063E02868B8BB4FF4AF70C9F80000CAF839
:100C900000005AE02868012857D140F21A40C9F8EC
:100CA0000000CAF80000C6F800802F49C4F8008090
:100CB000C5F8008081F804B047E02168012944D1DB
:100CC0002968012941D1F8B1022815D0042816D08D
:100CD000012817D0032818D0062819D007281AD0C1
:100CE00008281BD009281CD00A281DD00B281ED08C
:100CF0000C281FD020E028E002F0AAFC1CE002F043
:100D0000A3FD19E002F076FC16E002F093FD13E07B
:100D100002F0A4FD10E002F0C5FD0DE002F054FC6D
:100D20000AE002F0D9FC07E002F012FD04E002F054
:100D3000A7FD01E002F0BAFC0B4981F804B0C6F847
:100D40000080C4F80080C5F80080012002F0BAFDE0
:100D500088E7000034080040920000208400002052
:100D600050000020680000206C0000207047000048
:100D700010B54FF0FF33104903E0401C40B25D282E
:100D800017DA0A5C532AF8D10A1854785A2CF4D18D
:100D90009478482CF1D1D278592AEED101440979BE
:100DA0004A1E0B2A06D9FC2904D0FE2902D00029AC
:100DB00000D0184610BD0000DC05002090F835106A
:100DC000022903D08021416501207047052180F868
:100DD00035100068016821F00101016000207047B2
:100DE0002DE9F84304464FF00009CDF80090634820
:100DF0004FF41651A56D0068B0FBF1F72E6894F81A
:100E00005C10082000FA01F131420FD021680A6815
:100E100052070BD50A6822F004020A6094F85C10AD
:100E20008840A860606D40F00100606594F85C1037
:100E30004FF0010808FA01F0304208D021684969F2
:100E4000090604D5A860606D40F00200606594F862
:100E50005C1004208840304208D021680968890766
:100E600004D5A860606D40F00400606594F85C10E3
:100E700010208840304218D021680968090714D52D
:100E8000A86020680168490304D50068000308D5FC
:100E9000A16C07E00168C90503D4016821F00801CD
:100EA0000160216C09B12046884794F85C1020202D
:100EB0008840304231D021680968C9062DD5A86024
:100EC00094F8350005282068016806D0490347D505
:100ED000006800031DD4616C1CE021F01601016064
:100EE0002068416921F080014161206C08B9A06C43
:100EF00020B12068016821F00801016094F85C10BD
:100F00003F208840A86084F8349084F83580216DB3
:100F10001FE0E16B09B120468847606D00282BD0A7
:100F2000606DC00714D0052084F835002068016882
:100F300021F0010101600098401C0090B84203D8E4
:100F400020680068C007F6D184F8349084F83580B2
:100F5000E16C002910D001B02046BDE8F0430847FD
:100F60000168C905D5D4016821F01001016084F839
:100F7000349084F83580CCE7BDE8F883A4000020E5
:100F80002DE9F041044600F091F906465CB10025D8
:100F900084F83450022084F835002068016821F07C
:100FA000010101600DE00120BDE8F08100F07EF953
:100FB000801B052805D920206065032084F83500B2
:100FC000F2E720680068C007F0D122681168204865
:100FD0000140D4E901031843D4E9033633431843ED
:100FE00063691843A3691843E3691843236A1843E4
:100FF0000843616A042903D1D4E90B131943084358
:10100000106020684069666A20F0070130460E4390
:10101000012704280CD1A06A0643E06A40B12046AB
:10102000FFF7D4FD20B14020606584F83570BAE741
:10103000206846612046FFF7B5FD94F85C203F210B
:1010400091408160656584F835700020ACE7000050
:101050003F8010F02DE9F0410446866D90F8340091
:10106000002501280DD0012084F8340094F8357053
:101070000020012F07D084F8340002252846BDE85F
:10108000F0810220FBE7022784F835706065204676
:10109000FFF7C6FD94F85C103F208840B0602068E0
:1010A000016841F016010160206C20B120680168E0
:1010B00041F0080101602068016841F00101016010
:1010C000DCE7000070B5044600F0F0F80546601C4F
:1010D00002D004480078044400F0E8F8401BA04225
:1010E000FAD370BD980000202DE9F84F00224FF090
:1010F000010803254FF00F0E0B6808FA02F4234095
:10110000A3426ED14E68012E05D0022E03D0112EBF
:1011100001D0122E12D186684FEA420C05FA0CF764
:10112000BE43CF6807FA0CF7374387604668A6438B
:101130000C79C4F30014944034434460C6685700EB
:1011400005FA07FC8C6826EA0C06BC403443C460F0
:101150004C68022C01D0122C13D1D40800EB84046B
:10116000A346D4F8209054074FEAD46A0EFA0AF640
:1011700029EA06090E6906FA0AF646EA0906CBF8D4
:10118000206006680C7926EA0C0604F00304BC40D3
:10119000344304604C68E40065D5364C266846F458
:1011A00080462660246822F0030604F480440094FC
:1011B000314C3444A446D4F808489607370F0EFA49
:1011C00007F6B4432D4EB04201D1002624E02C4E48
:1011D000B04201D101261FE02A4EB04202D10226C0
:1011E0001AE040E0284EB04201D1032614E0274E19
:1011F000B04201D104260FE0254EB04201D10526B0
:101200000AE0244EB04201D1062605E0224EB0424B
:1012100001D1072600E00826BE402643CCF8086826
:101220001E4E34684F689C43FF0300D51C43346056
:101230001A4C241D26684F689E43BF0300D51E43E9
:101240002660164E083634684F689C43FF0200D56E
:101250001C433460114E0C3634684F689C43BF0207
:1012600000D51C433460521C102AFFF445AFBDE882
:10127000F88F000044380240003001400000024076
:101280000004024000080240000C0240001002402E
:101290000014024000180240001C0240003C0140C3
:1012A0000AB1816170470904FBE7000001488068CA
:1012B00070470000980000200248816802781144BD
:1012C00081607047980000200B4810B5016841F418
:1012D00000710160016841F480610160016841F4BE
:1012E00080710160032000F089F8002000F006F80A
:1012F00000F03EF8002010BD003C024010B5014651
:1013000088B000222D2000F059F82D2000F048F878
:1013100013480024016841F480710160006805A948
:1013200000F480700690684600F014F900F032F97D
:101330000C494000B0FBF1F10C480B4A491E026019
:1013400040F2E732C0E90324C0E9011400F06AFB6F
:1013500010B1012008B010BD044800F0AFFBF9E760
:101360004038024040420F00002000409C05002011
:101370000A4808B5016841F480410160006800F442
:10138000804000900548001F016841F080510160D5
:10139000006800F08050009008BD00004438024012
:1013A000002809DB00F01F02012191404009800064
:1013B00000F1E020C0F8001170470000F0B40E4BBF
:1013C0001B680C46C3F30223C3F10705042D00D9A3
:1013D0000425191D072901D2002300E0DB1E012688
:1013E00006FA05F1491E214099409E40761E16409E
:1013F0003143F0BC02F045B80CED00E0064900F0C6
:10140000070208684FF6FF03184040EA0220034A2B
:1014100010430860704700000CED00E00000FA0582
:101420002DE9F0470E46050065D0DFF81481D8F8A5
:101430000000F7B200F00F00B04207D288F8007049
:10144000D8F8000000F00F00B04254D128683D4C9D
:10145000810712D5400703D5206840F4E050206092
:101460002878000703D5206840F460402060206899
:10147000A96820F0F000084320602878C0072DD02C
:10148000304968680839012812D0022813D003288F
:1014900011D00968890700292DDA216821F003019C
:1014A00001432160FFF702FF814641F2883A0EE0D6
:1014B00009688903EFE709688901ECE7FFF7F6FEA1
:1014C000A0EB0901514502D90320BDE8F08720684F
:1014D000696800F00C00B0EB810FEFD1D8F8001074
:1014E000404601F00F01B14207D90770006800F0D3
:1014F0000F00B04201D00120E7E72878400705D56A
:101500002068E96820F4E05008432060287800074C
:1015100006D52068296920F4604040EAC1002060B7
:1015200000F058F82168084AC1F30311515CC84023
:101530000649086006480068FFF7E0FE0020C4E79F
:10154000003C02400838024054440008A400002037
:101550009C0000200F2202600C4A136803F0030372
:101560004360136803F0F0038360136803F4E053EF
:10157000C36012684FF4E05303EAD20202610448E8
:10158000006800F00F000860704700000838024053
:10159000003C02400448054900680968044AC1F358
:1015A0008221515CC8407047A400002008380240E6
:1015B000644400080448054900680968044AC1F306
:1015C0004231515CC8407047A400002008380240F6
:1015D00064440008154810B5006810F00C02144867
:1015E00013D04110042A0FD0082A0ED10F4C241F0B
:1015F0002268236802F03F025B0207D52068C0F32F
:101600008810A0FB010106E0084610BD2168C1F367
:101610008811A1FB00010023FEF734FE2168C1F30D
:101620000141491C4900B0FBF1F010BD08380240EF
:101630000024F4002DE9F84F04006ED02078DFF884
:101640003C93C007A9F104054AD009F104000168E0
:10165000C1F38101012908D00068C0F3810002288C
:101660000AD1D9F80000400206D52868800337D592
:1016700060680028E1D033E06068B0F5803F10D0AA
:10168000B0F5A02F286810D020F48030286028689A
:1016900020F4802028606068A8B1FFF707FE0646A6
:1016A0000DE0286840F48030F4E740F480202860A2
:1016B000F7E700BFFFF7FAFD801B642873D828689E
:1016C0008003F7D50CE0FFF7F1FD064605E000BF0B
:1016D000FFF7ECFD801B6428F0D828688003F7D45E
:1016E0002078DFF89C8280074FF0000A3ED5A3489F
:1016F000001D016811F00C0F08D00068C0F38100D4
:1017000002280BD1D9F80000400207D428688007CE
:1017100016D5E068012800D112E02BE1E068B8B1ED
:101720000120C8F80000FFF7C1FD064605E000BF34
:10173000FFF7BCFD801B0228C0D828688007F7D5BA
:101740002868216920F0F80040EAC10028600DE017
:10175000C8F800A0FFF7AAFD064604E0FFF7A6FDC3
:10176000801B02281FD828688007F7D4207800073C
:1017700022D5824E83486169703671B101210160C2
:10178000FFF794FD074604E0FFF790FDC01B022819
:1017900009D830688007F7D50EE0C0F800A0FFF741
:1017A00085FD074605E082E0FFF780FDC01B0228AB
:1017B0007DD830688007F7D42078400768D5DFF8F7
:1017C000BCB100270BF13C0BDBF80000C0000BD4D0
:1017D000DBF8001041F08051CBF80010DBF800007E
:1017E000012700F080500090674E3068C00510D48B
:1017F000306840F480703060FFF758FD009005E0DD
:10180000FFF754FD0099401A022850D83068C005EF
:10181000F6D55A4EA0686C3601280FD005283068DE
:1018200010D020F001003060306820F004003060FB
:10183000A068B8B1FFF73AFD00900FE0306840F0C3
:101840000100F4E740F004003060F7E7FFF72EFDF9
:101850000099411A41F28830814266D83068800789
:10186000F4D50EE0FFF722FD009007E0FFF71EFD24
:101870000099411A41F28830814256D83068800779
:10188000F4D42FB1DBF8001021F08051CBF8001018
:10189000A069C8B33949091D0968C1F3810102294A
:1018A0004AD00228504607D0C8F8600000E03CE06B
:1018B000FFF7FCFC04463BE04746C8F86000FFF732
:1018C000F5FC064605E000BFFFF7F0FC801B022890
:1018D0002BD828688001F7D4D4E907010843A16A0E
:1018E0002A4A490802EB0141626A41EA821108432F
:1018F00094F82C1040EA0161C9F800100120386604
:10190000FFF7D4FC044606E036E000BFFFF7CEFC4C
:10191000001B022809D828688001F7D52CE000BFF9
:10192000FFF7C4FC001B022802D90320BDE8F88F92
:1019300028688001F4D41FE00128F7D0D9F800000E
:10194000E26900F48001914214D1226A00F03F0163
:1019500091420FD147F6C071626A0140914209D1AC
:10196000A26A00F44031914204D1E16A00F0706053
:10197000884201D00120D9E70020D7E7043802408F
:1019800000004742800E4742007000400000FFFF09
:101990007047704770B590F83C20012A32D001247E
:1019A00080F83C40022280F83D2003685A689D6818
:1019B00022F070060A6832435A60134B02689A425A
:1019C00014D0B2F1804F11D0104B9A420ED0104B70
:1019D0009A420BD00F4B9A4208D00F4B9A4205D037
:1019E0000E4B9A4202D00E4B9A4204D1496825F020
:1019F00080031943916080F83D40002180F83C103D
:101A0000084670BD022070BD000001400004004087
:101A100000080040000C004000040140004001406C
:101A20000018004010B5040003D094F83D0010B138
:101A300007E0012010BD002084F83C00204600F0A3
:101A40000DF8022084F83D00211D206801F0BAF94C
:101A5000012084F83D00002010BD000008B5134AA5
:101A600001681348914207D1016841F00201016009
:101A7000006800F0020009E00E4A914208D10168B6
:101A800041F004010160006800F00400009008BD0E
:101A900009488142FBD10648001D016841F48021BC
:101AA0000160006800F48020F0E7000000040040BE
:101AB0004038024000080040004801400168CA6800
:101AC00042F00102CA600068816801F0070106293E
:101AD00003D0016841F0010101600020704770B53A
:101AE000044690F83C00012817D0012584F83C50AA
:101AF000022084F83D002068826822F0770222F4F8
:101B00007F4282600868502830D00DDC20284DD0FC
:101B100005DC98B310283BD148E0022070BD302886
:101B200044D0402834D139E0602828D0702806D02D
:101B3000B0F5805F2CD0B0F5005F29D10AE0CB680A
:101B4000D1E90121206801F0AEF92068816841F0F7
:101B5000770109E0CB68D1E90121206801F0A3F900
:101B60002068816841F48041816011E0CA68496859
:101B7000206801F06DFA5021206807E016E0CA687D
:101B80004968206801F075FA6021206801F095F934
:101B900084F83D50002084F83C0070BDCA68496854
:101BA000206801F055FA40212068EFE722680146DD
:101BB0001046EBE72DE9F0410D46040003D094F800
:101BC0003D0018B108E00120BDE8F081002084F854
:101BD0003C00204600F03AF8022084F83D002068DE
:101BE000816844F2070291438160211D206801F061
:101BF000E9F8226890689169166A2B68AF69034317
:101C000040F20330814341EA0721A868EF690843A5
:101C10004FF6FC418843E96840EA07200143286900
:101C20002F6A000140EA0730084369686D6926F0B1
:101C3000AA0646EA05152943936022689061206848
:101C40000162012084F83D000020BDE710B586B098
:101C5000044614216846FEF75FFB2268294C0021E8
:101C600029480223A24224D1274A1432146844F09E
:101C700001041460126802F001020592026842F049
:101C800010020260006800F0100005904FF4206020
:101C90000090CDE901310120CDE9031069461B48D0
:101CA000FFF722FA002211461920FFF787FB1920BF
:101CB00024E0174CA24223D1134A1032146844F096
:101CC00008041460126802F008020592026842F0EB
:101CD00001020260006800F00100059003200090FE
:101CE000CDE90131CDE9031369460A48FFF7FCF954
:101CF000002211463220FFF761FB3220FFF750FB34
:101D000006B010BD00000140303802400010024013
:101D1000000C00400000024010B50446006891B17C
:101D2000042904D00122002101F0B0F8206801222A
:101D30005FF0040101F0AAF82068016841F0010198
:101D40000160002010BD01220021F3E7704770B54B
:101D50000446006801694FF00005C943890715D49E
:101D6000C168C943890711D4E91E016101202077A8
:101D7000206880698007204602D0FFF7E7FF04E073
:101D800000F012F9204600F094F9257720680169E7
:101D9000C943490717D4C168C943490713D46FF031
:101DA00004010161022020772068806910F4407FDF
:101DB000204602D0FFF7CAFF04E000F0F5F8204605
:101DC00000F077F9257720680169C943090716D41F
:101DD000C168C943090712D46FF0080101610420EA
:101DE00020772068C0698007204602D0FFF7AEFF49
:101DF00004E000F0D9F8204600F05BF92577206870
:101E00000169C943C90617D4C168C943C90613D4B7
:101E10006FF010010161082020772068C06910F47C
:101E2000407F204602D0FFF791FF04E000F0BCF8AD
:101E3000204600F03EF9257720680169C943C907AB
:101E400008D1C168C943C90704D1891E0161204670
:101E500000F052F920680169C943090609D4C16834
:101E6000C943090605D46FF0800101612046FFF7E0
:101E70008FFD20680169C943490609D4C168C94377
:101E8000490605D46FF040010161204600F062F977
:101E900020680169C94389060BD4C168C943890612
:101EA00007D46FF0200101612046BDE87040FFF7C4
:101EB00070BD70BDF0B587B0044614216846FEF7CA
:101EC0002BFA314A21680025304802240327304E7E
:101ED00091421CD1016841F001010160016801F0EB
:101EE00001010591016841F0020101600068694645
:101EF00000F002000590C0208DE83100CDE90354C8
:101F00002448FFF7F1F80097CDE901451FE0224A88
:101F1000914225D1016841F008010160016801F09A
:101F200008010591016841F00201016000686946FD
:101F300000F0020005904FF460408DE83100CDE9DB
:101F400003541648FFF7D0F840208DE83100CDE962
:101F500003546946304600BFFFF7C6F807B0F0BD2E
:101F60000F4A9142FAD1016841F0200101600068F6
:101F7000694600F02000059080208DE83100CDE911
:101F800003570848E8E700000004004030380240EA
:101F9000000402400000024000080040000C024023
:101FA0000048014000140240704770B5044690F8A4
:101FB0003C000D4601280DD0012684F83C6002202B
:101FC00084F83D0042B1042A18D0082A2AD00C2AED
:101FD0004DD139E0022070BD206800F077FF206805
:101FE000816941F0080181612068816921F0040163
:101FF0008161206881692A69114311E0206800F03D
:1020000095FF2068816941F40061816120688169E0
:1020100021F480618161206881692A6941EA022195
:10202000816124E0206800F0B7FF2068C16941F0B9
:102030000801C1612068C16921F00401C161206803
:10204000C1692A69114311E0206800F0D9FF2068B6
:10205000C16941F40061C1612068C16921F48061F6
:10206000C1612068C1692A6941EA0221C16184F81D
:102070003D60002084F83C0070BD10B5040003D022
:1020800094F83D0010B107E0012010BD002084F855
:102090003C00204600F00CF8022084F83D00211D91
:1020A000206800F08FFE012084F83D00002010BD64
:1020B0007047704710B504460068012200F0E6FE44
:1020C0000B492068884202D00A49884203D1416CFA
:1020D00041F4004141642068816801F0070106294C
:1020E00003D0016841F001010160002010BD000033
:1020F0000000014000040140114988420AD10968EA
:102100000968104ACB06B2F9001001D5491E00E05B
:10211000491C11800C4988420AD1096809680B4A98
:10212000CB06B2F9001001D5491E00E0491C118010
:1021300000680749884201D1FFF7BEB87047000028
:102140005C030020480000201C04002064000020E4
:10215000002000407047704770B502680446106860
:10216000D168536910F00F0F52D003F0010501F44C
:1021700090762E435FD0C20705D0CA0503D5E26B27
:1021800042F00102E263420705D5DA0703D0E26BB1
:1021900042F00202E263820705D5DA0703D0E26B60
:1021A00042F00402E263020707D501F020022A434D
:1021B00003D0E26B42F00802E263E26B002A33D004
:1021C000800604D5880602D5204601F032F8206842
:1021D0004069E16BC0F38010090700D428B32046A2
:1021E00001F010F82068416949061AD5416921F0CB
:1021F00040014161606BA0B11B490165606BFEF756
:10220000DDFD002810D0606B016DBDE8704008470F
:10221000830610D58B060ED52046BDE8704001F030
:1022200008B82046FFF797FF70BD2046FFF793FFE1
:102230000020E06370BD030606D50B0604D52046DA
:10224000BDE8704001F0D4B84006F3D54806F1D59A
:10225000D168204621F04001D160202184F8391056
:1022600000F060F970BD00002D3100080149012027
:10227000087070477400002070B5040004D094F812
:102280003900002510B106E0012070BD84F83850F7
:10229000204600F023F8242084F839002068C16823
:1022A00021F40051C160204601F00EF82068016958
:1022B00021F4904101612068416921F02A014161C6
:1022C0002068C16841F40051C160E563202084F8B2
:1022D000390084F83A00002070BD00002DE9F04379
:1022E00087B0064614216846FEF716F8384930686C
:1022F000884269D137480024016841F40031016007
:10230000006800F40030059032481038016841F050
:1023100001010160016801F001010591016841F0CE
:10232000080101600068022500F008000590042003
:10233000CDE9000502AA03274FF0070882E89001C3
:1023400069462548FEF7D0FE02AA4FF0400982E810
:102350009001CDE9009569462048FEF7C5FE214D64
:102360001F484FF000672860C5E901744FF480688A
:10237000C5E903486C61AC61EC612C6228466C6273
:10238000FEF7FEFD08B1FEF7F1FC7563AE63154D77
:10239000134860351830C5E903486C61AC61EC61E5
:1023A0002C626C6285E881022846FEF7E9FD08B1DF
:1023B000FEF7DCFC3563002211462620AE63FEF7F3
:1023C000FDFF2620FEF7ECFF07B0BDE8F08300001C
:1023D000004400404038024000000240000C02402F
:1023E00088600240DC040020F8B5044690F83A000A
:1023F00020283CD1C1B3BAB394F83800012836D0B4
:10240000012084F83800A162A2850025E56322201E
:1024100084F83A00636B1748D863636B16481864F6
:10242000636B1648D864606B134605650846666B97
:10243000216802463046091DFEF70CFE206801683F
:102440004168009184F83850C16841F48071C160DE
:102450002068416941F0010141612068416941F012
:10246000400141610020F8BDFFE70120FBE70220A9
:10247000F9E7000087310008C33100083D3100084A
:1024800000680449884204D1642203490348FFF7E5
:10249000ABBF704700440040DC0500209C040020D6
:1024A0007047000070B5044690F83900202830D1FC
:1024B00069B362B394F8380001282AD0012084F867
:1024C00038002162A284E2840025E563212084F89B
:1024D0003900236B1048D863236B10481864236BB2
:1024E0000F48D864206B134605652668206B321DA3
:1024F000FEF7B0FD21686FF04000086084F83850A6
:102500002068416941F080014161002070BD0120D7
:1025100070BD022070BD0000CD310008FB31000805
:102520003D31000870477047FEE7000070B5134E5C
:1025300000243460351D42F210702860C820FEF778
:10254000C1FD346041F28830286040F6B830FEF7B3
:10255000B9FD2C600A4804800A4804600A484462B5
:102560000C489FED0A0BFF2180ED000B0A4801711A
:102570004471202181711F21C17170BD3C04004054
:1025800064000020240C0040000001400000000016
:1025900000804040780000206C000020044C20782F
:1025A000FC2801D000F014FB012001F08BF9F6E7C4
:1025B000920000200D4808B5016841F40011016047
:1025C0000068002200F40010009011461020FEF771
:1025D000F5FE1020FEF7E4FE002211461120FEF762
:1025E000EDFEBDE808401120FEF7DABE30380240AB
:1025F00010B5A4B01C221C496846FDF774FE0021EA
:10260000684601F06BF9194C17491C2220601C31F7
:1026100007A8FDF768FE002107A801F05FF912493D
:1026200060601C2238310EA8FDF75DFE00210EA867
:1026300001F054F90C49A0601C22543115A8FDF793
:1026400052FE002115A801F049F90749E0601C225B
:1026500070311CA8FDF747FE00211CA801F03EF9CF
:10266000206124B010BD0000C0430008000000201D
:1026700030B587B014216846FDF74EFE2648002489
:10268000016841F020010160016801F0200105911D
:10269000016841F080010160016801F0800105914D
:1026A000016841F004010160016801F00401059135
:1026B000016841F001010160016801F0010105912B
:1026C000016841F002010160016801F00201059119
:1026D000016841F010010160016801F010010591ED
:1026E000016841F00801016000680C4D00F008002D
:1026F0000590002205212846FEF7D2FD0520009016
:10270000012001900220CDE9020469462846FEF727
:10271000EBFC07B030BD000030380240000802403A
:1027200010B588B01C216846FDF7F6FD1548144920
:10273000002401607D21C0E9011440F22B11C0E9A1
:1027400003148461FFF76EF908B1FEF70FFB0D4823
:10275000FFF793FC08B1FEF709FB6020009096207C
:10276000CDE901040022694606480494FFF71DFCE8
:1027700008B1FEF7FBFA0348FFF79CFB08B010BD59
:10278000004801405C04002010B58CB0242168464C
:10279000FDF7C2FD00241748099415490A94C0E9C1
:1027A00000144FF6FF71C0E9024104614461846185
:1027B0000320CDE900040120CDE9020406210491A3
:1027C000CDE90540CDE9074169460A48FFF7F2F92E
:1027D00008B1FEF7CBFA099409A906480A94FFF755
:1027E000D9F8002801D0FEF7C1FA0CB010BD0000E6
:1027F000000001405C03002010B58EB00024079457
:10280000089409940A940B941C2168460C94FDF7D3
:1028100083FD2A48284901605321C0E9011442F28E
:102820000F71C0E903148461FFF7FCF808B1FEF7EB
:102830009DFA4FF48050079007A92048FFF74FF901
:1028400008B1FEF793FA1D48FFF717FC08B1FEF731
:102850008DFA0B940BA919480C94FFF79BF808B15B
:10286000FEF784FA6020CDE9000402940022694654
:1028700012480494FFF799FB08B1FEF777FA042297
:1028800069460E48FFF791FB08B1FEF76FFA082280
:1028900069460A48FFF789FB08B1FEF767FA0C2280
:1028A00069460648FFF781FB08B1FEF75FFA034867
:1028B000FFF700FB0EB010BD000400409C03002099
:1028C00010B58EB000240794089409940A940B94D0
:1028D0001C2168460C94FDF71FFD2A482849016019
:1028E0005321C0E9011444F61F61C0E90314846157
:1028F000FFF798F808B1FEF739FA4FF480500790C7
:1029000007A92048FFF7EBF808B1FEF72FFA1D489A
:10291000FFF7B3FB08B1FEF729FA0B940BA919488E
:102920000C94FFF737F808B1FEF720FA6020CDE9E4
:10293000000402940022694612480494FFF735FB14
:1029400008B1FEF713FA042269460E48FFF72DFB83
:1029500008B1FEF70BFA082269460A48FFF725FB83
:1029600008B1FEF703FA0C2269460648FFF71DFB83
:1029700008B1FEF7FBF90348FFF79CFA0EB010BD53
:1029800000080040DC03002010B58CB0242168460C
:10299000FDF7C2FC00241648099414490A94C0E9C2
:1029A00000144FF6FF71C0E9024104618461032005
:1029B000CDE900040120CDE9020406210491CDE90E
:1029C0000540CDE9074169460948FFF7F3F808B12A
:1029D000FEF7CCF9099409A905480A94FEF7DAFF35
:1029E000002801D0FEF7C2F90CB010BD000C004069
:1029F0001C0400200C4810B50A4901604FF4E13175
:102A00004160002181600C22C160C0E90412816133
:102A1000C161FFF731FC002803D0BDE81040FEF78C
:102A2000A5B910BD004400409C040020FEE770479B
:102A3000124A00211160D16151609160916190ED65
:102A4000000A82ED030A90ED010A82ED040A90ED7E
:102A5000020A82ED050A0A4A1160D1615160916053
:102A6000916190ED030A82ED030A90ED040A82ED74
:102A7000040A90ED050A82ED050A70474006002021
:102A8000600600200368591A4160914206DC5242F8
:102A9000914203DB00218161084670478269154B32
:102AA0000A4482619A4202DC5B429A4200DA836104
:102AB00000EE101AD0ED030A90ED041AB8EEC00A29
:102AC00082688A1A20EE800AD0ED060AF8EEE00A43
:102AD00001EE200A00EE902A90ED051AF8EEE00AC9
:102AE00001EE200ABDEEC00A10EE102AC26181601C
:102AF00010467047808D5B0040F6C411884203D8B1
:102B00004FF4FA71884200D208467047044C20788E
:102B1000FC2801D000F00CF8012000F0D3FEF6E70D
:102B200092000020FDF72EFF012000F0CBFEF9E718
:102B300010B51D4C002020701C4890ED000A1C4868
:102B4000BDEEC00A10EE101A01F04AF9194801F062
:102B500021F91949B1F90010C1EB014101441748AD
:102B60000160174802681248FFF78CFF01F0F2F885
:102B70001449086001F012F902E000BF00F0A0FA69
:102B8000FDF7D8FE0028F9D000F09AFA0A20FEF7E7
:102B900099FA0D480068012805D12078002802D153
:102BA0000A490120086010BD900000204C00002060
:102BB000400600205C030020480000204000002068
:102BC000440000203C000020840000205000002031
:102BD0002DE9F05F344F0021344C3868012801D0D2
:102BE00028B105E0206818B90B20206000E02160C2
:102BF0002F4D00202F4EDFF8C0A0DFF8C080DFF897
:102C0000C0B0DFF8C090287096ED000BFDF76EFEA7
:102C100096ED000B51EC100BFDF722FD01462A4802
:102C200001F0DEF8294801F0B5F8BAF90010C1EB5F
:102C300001410144C8F800102348DBF80020FFF7E9
:102C400021FF01F087F8C9F8000001F0B9F82878F1
:102C5000D0B91D4841681E4842688A1A0A32142AAF
:102C60000FD8002901DB0A4600E04A42B2F57A7F1C
:102C700007DC0278521CD2B202700A2A03D3012266
:102C80002A700022027041600520FEF71BFA2878A6
:102C90000128B9D13868012804D120680B2801D156
:102CA00001202060BDE8F09F840000206800002023
:102CB0005800002078000020640000205C00002004
:102CC0006000002054000020600600201C0400204A
:102CD0001C00002010B5502080F31188BFF34F8FE7
:102CE000BFF36F8F01F0A6FA18B104494FF080507E
:102CF0000860002080F3118810BD000004ED00E0A2
:102D000030B593B030216846FDF706FB14210CA8BE
:102D1000FDF702FB19480025016841F08051016070
:102D2000006800F0805011901548016841F480411E
:102D300001600068022400F480401190012000909E
:102D4000000401908001CDE9064008AA0420A821D2
:102D500082E813000B906846FEF76CFC0CA90F206C
:102D600081E831004FF4A0500F90E002109005214F
:102D70000CA8FEF755FB13B030BD000040380240F0
:102D8000007000400548016841F47001016003498A
:102D90004FF00060803908607047000088ED00E067
:102DA0000148FEF7D4BF00005C0300200148FEF795
:102DB000CEBF00001C0400200148FEF7C8BF000081
:102DC0009C050020F0B50268254C264D264E274F65
:102DD000274B4FF0804CA04209D0604507D0A84255
:102DE00005D0B04203D0B84201D0984204D122F0BD
:102DF000700E4A6842EA0E02A0421BD0604519D00C
:102E0000A84217D0B04215D0B84213D0984211D082
:102E1000184DA8420ED0184DA8420BD0174DA8420D
:102E200008D0174DA84205D0164DA84202D0164D25
:102E3000A84203D122F44075CA682A434D6922F0A2
:102E400080022A4302608A68C2620A688262A042E3
:102E500001D0984201D10969016301214161F0BDAE
:102E6000000001400004004000080040000C004049
:102E7000000401400040014000440140004801407E
:102E800000180040001C00400020004010B501F078
:102E90001F030121046A99408C430462016A9A402D
:102EA0001143016210BD10B5846842EA032224F484
:102EB0007F440A432243826010BD826822F0700280
:102EC0000A4342F00701816070470000F0B5026AD2
:102ED00022F001020262036A42688469124E24F001
:102EE00073050C682C4323F002058B682B430D4DB2
:102EF000A84201D0B04205D123F00807CB683B437C
:102F000023F00403A84201D0B04205D14D6922F458
:102F1000407215438A692A4342608461496841636B
:102F20000362F0BD0000014000040140F0B5026AF8
:102F300022F010020262026A436884690D6824F478
:102F4000E64444EA05248D6822F0200242EA051294
:102F50000F4D104EA84201D0B04206D1CF6822F0EA
:102F6000800242EA071222F04002A84201D0B04299
:102F700007D14D6923F4406343EA85038D6943EA31
:102F8000850343608461496881630262F0BD00008B
:102F90000000014000040140F0B5026A22F4807292
:102FA0000262026A4368C46922F4007224F0730565
:102FB0000C68124E2C438D6842EA05220E4DA84241
:102FC00001D0B04206D1CF6822F4006242EA072263
:102FD00022F48062A84201D0B04207D14D6923F4A7
:102FE000405343EA05138D6943EA05134360C46106
:102FF0004968C1630262F0BD000001400004014065
:1030000030B5026A22F480520262046A4268C369DF
:103010000D6823F4E64343EA05238D6824F4005445
:1030200044EA0534084DA84202D0084DA84204D114
:103030004D6922F4804242EA85124260C3614968C8
:103040000164046230BD0000000001400004014042
:1030500010B5036A046A24F001040462846924F050
:10306000F00444EA021423F00A020A438461026273
:1030700010BD10B5036A23F0100303628369046A6C
:1030800023F4704343EA023224F0A00343EA01111F
:103090008261016210BD0000074C0822207961792D
:1030A0000844A1790844E07103490448FFF7FAF99C
:1030B000012000F007FCF0E76C0000209C040020D9
:1030C000124810B5006801281FD111480068FDF7AB
:1030D000B6FA9FED101B53EC112BFDF7CFF99FEDC6
:1030E0000F1B53EC112BFDF73BFAFDF709FB00EE2C
:1030F000100A0C48BDEEC00A016810EE100A084420
:103100000949002800DCB430487110BD840000205B
:103110004000002000000000008076400000000019
:10312000E0F61941880000206C00002010B5806B8B
:103130000021C185C184FFF70EF810BD70B5846B06
:103140002068406994F83910C0F3C0100025212987
:1031500004D118B1E584204600F062F82068406987
:1031600094F83A10C0F38010222904D118B1E585F3
:10317000204600F047F8E06B40F01000E063204686
:10318000FEF7E9FF70BD10B50146806B096809685C
:10319000C90513D40021C1850168CA6822F4807270
:1031A000CA6001684A6922F001024A6101684A69FD
:1031B00022F040024A61202180F83A10FFF760F9BE
:1031C00010BD10B5806BFFF76BF910BD10B501464F
:1031D000806B09680968C9050CD40021C1840168A5
:1031E0004A6922F080024A610068C16841F04001EA
:1031F000C16010BDFFF796F910BD10B5806BFFF7E9
:1032000092F910BD0168CA6822F49072CA60016820
:103210004A6922F001024A61202180F83A10704781
:103220000168CA6822F0C002CA60202180F8391003
:10323000704710B590F83A10222901D0022010BD35
:103240008168B1F5805F11D00169002901681FD044
:10325000496801F07F03816A4A1C82620B70C18D4C
:10326000491E0904090CC18518D02BE00269816A46
:10327000002A0268526805D0D2B20A80816A491CCD
:103280008162ECE7C2F308020A80816A891CF7E7D1
:103290004A68816A4B1C83620A70E0E70168CA6869
:1032A00022F02002CA600168CA6822F48072CA60F3
:1032B00001684A6922F001024A61202180F83A102F
:1032C000FFF7DEF8002010BD2DE9F041044600684C
:1032D0000169E26821F44051114301612169A0684C
:1032E000E26908436169114308432168CA6849F2E9
:1032F0000C639A430243CA6020684169A26921F4C1
:10330000407111434161E069192764253226B0F507
:10331000004F354A354920684FF0000806D08842F2
:1033200001D0904236D1FEF745F935E0884201D010
:10333000904202D1FEF73EF901E0FEF72BF96168F9
:103340004A18A0FB070148EB0803FCF79BFF014666
:10335000B0FBF5F00201B1FBF5F06FF01803584334
:1033600001EB800006EBC000B0FBF5F000F0F800C8
:1033700002EB4002B1FBF5F0584301EB800006EB95
:10338000C000B0FBF5F000F0070021681044886031
:10339000BDE8F081FEF7FEF861688B0F8A00A0FBA4
:1033A0000701FCF76FFF0146B0FBF5F06FF0180264
:1033B000504301EB800006EB0010B0FBF5F000F08D
:1033C000F002B1FBF5F002EB0012B1FBF5F06FF08B
:1033D0001803584301EB800006EB0010B0FBF5F03A
:1033E00000F00F00D1E70000001401400010014080
:1033F00090F83910212901D0022070478168B1F579
:10340000805F016A0BD04A1C026202680978516031
:10341000C18C491E0904090CC1840ED017E009882B
:103420000268C1F30801516001690029016A02D0F4
:10343000491C0162ECE7891CFBE70168CA6822F0BD
:103440008002CA600068C16841F04001C16000208C
:103450007047000008B50948FEF77EFE074800687F
:103460000168C943C90607D4016840680090BDE8F7
:1034700008400248FEF7FABE08BD00009C04002088
:10348000FEE70907090E002804DB00F1E02080F8C0
:103490000014704700F00F0000F1E02080F8141DC8
:1034A00070472DED020B019820F0004001909DED3A
:1034B000000B02B0704702E008C8121F08C1002AC2
:1034C000FAD170477047002001E001C1121F002AA5
:1034D000FBD17047FDF7F8FEFFF712FCFFF7C8F8C5
:1034E000FFF768F8FFF7ECF9FFF71AF9FFF782FA30
:1034F000FFF74AF9FFF780F9FFF746FA2748006817
:10350000C16841F01001C160642225492348FEF7DB
:103510006BFF00212348FEF7CDFD04212148FEF773
:10352000C9FD21486FF00104006804613C211E4878
:10353000FEF7F2FB1C48FEF7C1FA08211948FEF716
:10354000B9FD0C211748FEF7B5FD18480068046165
:103550003C211648FEF7E0FB1448FEF7AFFA0021C5
:103560001348FEF7A7FD04211148FEF7A3FD08212B
:103570000F48FEF79FFD0C210D48FEF79BFD002133
:103580000C48FEF797FD0C48FFF752FA00F01CF9C3
:10359000FFF72EF800F09DF9FEE700009C040020E4
:1035A000DC0500209C0300205C0300201C0400209C
:1035B000DC0300205C0400202400002001460020E1
:1035C000842900D0C81C7047094910B540F2C44096
:1035D0000860091D08604FF4FA70FDF773FD044997
:1035E00040F2DC5008390860401F091D086010BD1A
:1035F0003C0800402DE9F041144C40F2EE202060E0
:10360000251D28604FF496784046FDF75BFD0F4E70
:103610004FF4E160083E3060401F271F386040468D
:10362000FDF750FD40F2C440206028604FF4C870A0
:10363000FDF748FD40F21A403060401F3860BDE899
:10364000F0414FF47A70FDF73DBD00003C080040AA
:103650002DE9F041144C40F2EE202060251D286039
:103660004FF496784046FDF72DFD0F4E40F2267040
:10367000083E3060401F271F38604046FDF722FD9E
:1036800040F27E40206028604FF4C870FDF71AFDBC
:1036900040F21A403060401F3860BDE8F0414FF4FE
:1036A0007A70FDF70FBD00003C080040094910B5D5
:1036B00040F2C4400860091D08604FF4FA70FDF73D
:1036C00001FD04494FF4B46008390860401F091D2A
:1036D000086010BD3C0800402DE9F0411B4E4FF43E
:1036E00096603060371D38604FF4C870FDF7EAFC13
:1036F000164C40F23250083C2060401F251D2860C7
:10370000C820FDF7DFFC4FF46170306038604FF483
:10371000BE602060401F2860C820FDF7D3FC4FF436
:10372000E1602060401F2860C820FDF7CBFC40F21C
:10373000C440306038604FF4FA70FDF7C3FC40F2CB
:103740001A402060401F2860BDE8F0813C0800401E
:103750002DE9F0411B4E40F21E503060371D38609D
:103760004FF4C870FDF7AEFC164C40F23250083CE6
:103770002060401F251D2860C820FDF7A3FC4FF4E2
:103780002F70306038604FF4BE602060401F2860AA
:10379000C820FDF797FC4FF4E1602060401F2860CF
:1037A000C820FDF78FFC40F27E40306038604FF457
:1037B000FA70FDF787FC40F21A402060401F286035
:1037C000BDE8F0813C08004010B500F005F8BDE808
:1037D0001040FEF7ABBE00002DE9F047144D4FF44A
:1037E000FA742C602E1D3460114F40F21A49083FC4
:1037F000C7F80090A5F1040840F2154AC8F800A0E7
:103800002046FDF75FFC40F27E402860306040F2C9
:1038100014503860411FC8F800106000FDF752FCDA
:103820002C603460C7F80090C8F800A0BDE8F087AD
:103830003C08004003494FF4FA700860091D086015
:10384000704700003C08004003494FF4FA700860DC
:10385000091D0860704700003C08004007494FF40C
:10386000FA700860091D0860044940F21A400839DE
:103870000860401F091D0860704700003C080040B8
:10388000074B10B518681A1D14683238FFF734F961
:103890001860A4F13200FFF72FF9106010BD00008E
:1038A00034080040064940F21A400860401F091DD4
:1038B0000860091D4FF4FA700860091D0860704720
:1038C0003408004010B500B9012000F04FFB002083
:1038D00010BD10B500F070FB002010BD7FB50D4687
:1038E00004464169B0F9080081B1A16971B1FFF7DF
:1038F00065FED4E905128DE80700D4E900102B46D7
:10390000226900F06CFC039004B070BDFFF756FE16
:1039100003A9CDE90001208A2B4682B2D4E9001028
:1039200000F030FC012801D00020EDE70398EBE720
:103930002DE9F041184C0F46054666692068001DC8
:1039400000F050FA38B9206890F82C100120884017
:10395000A1698143A161681C07D137B12168BDE825
:10396000F0410E48091D00F081BA20683544B54287
:103970004560216805D2A068BDE8F041091D00F04E
:103980005DBA6068091D00F059FA206B854200D2CB
:103990002563BDE8F0810000A80000205C0700203E
:1039A0002DE9F041054600F06DFA2E4C2069401CCF
:1039B000206120682C4F10B1E06940B32DE02560F4
:1039C0002069012829D1002606EB860007EB80003C
:1039D00000F026FA761C072EF6D323488C3000F030
:1039E0001FFA2148A03000F01BFA1F48B43000F045
:1039F00017FA1D48C83000F013FA1B48DC3000F0FD
:103A00000FFA19488C3060601430A06005E020681F
:103A1000E96AC06A884200D82560E06A401CE0621A
:103A2000E96A0120A26988401043A06101EB81008E
:103A300007EB8000291D00F019FA00F043FAE06955
:103A400000280CD02068E96AC06A884207D207497A
:103A50004FF080500860BFF34F8FBFF36F8FBDE80A
:103A6000F0810000A80000208006002004ED00E0A6
:103A700010B5044690F8510058B101280CD0022826
:103A80000FD0502080F31188BFF34F8FBFF36F8F9B
:103A9000FEE7206B00F02AFA2046BDE8104000F057
:103AA00025BA10BD10484FF47051420706D0C01D12
:103AB0000D4920F00700411AC1F570510B4A00234F
:103AC0000144C2E900030839103A21F007011160EE
:103AD0004B600B600B1AC0E9001393604FF000407D
:103AE0005360D0607047000070070020F400002091
:103AF000144E154CA6F1C8074FF08058DFF84C90D3
:103B000012E000BF00F0BEF9F068C568281D00F0A3
:103B100069F92069401E2061E068401EE06000F005
:103B2000D1F92846FFF7A4FFE0680028EAD13868F9
:103B30000128F9D9C9F80080BFF34F8FBFF36F8F09
:103B4000F2E7000048070020A800002004ED00E094
:103B50002DE9F0479A46DDE9098481466FF00303B9
:103B6000206B03EB82021044089E20F007077807C1
:103B700007D0502080F31188BFF34F8FBFF36F8FB2
:103B8000FEE7002561B1002023180A5C83F8342089
:103B90000A5C12B1401C1028F6D384F8435001E0AF
:103BA00084F83450072E00D30626E662C4E9116576
:103BB000201D00F040F904F1180000F03CF92461E8
:103BC000C6F107006462A061E56484F85050524673
:103BD0004946384600F0C8F82060B8F1000F01D01F
:103BE000C8F80040BDE8F08730B5114900E0114643
:103BF0000A688242FBD34B685C18844203D1406858
:103C000018444860084643681C18944209D1084C7F
:103C1000103C2468A24209D052681A4442600A68E3
:103C200012680260814200D0086030BD0460F9E78C
:103C3000F400002006484168096829B14168C96854
:103C4000C9684968016370474FF0FF31FAE7000027
:103C5000A800002008484068401C4FF0500080F346
:103C6000118804D0BFF34F8FBFF36F8FFEE7BFF310
:103C70004F8FBFF36F8FFEE7FC0000202DE9F0416E
:103C80000546002700F0CEF9314E306808B9FFF73D
:103C900009FFF06805424BD1C5B3083568070ED05F
:103CA00005F00700C0F108000544680707D0502060
:103CB00080F31188BFF34F8FBFF36F8FFEE72DB3F3
:103CC0007068854234D82248103001460C6801E003
:103CD00020460C466168A94202D221680029F7D12A
:103CE00031688C4224D00768216801606068083719
:103CF000411B10290FD96019420708D0502080F3CA
:103D00001188BFF34F8FBFF36F8FFEE710E0416064
:103D10006560FFF769FF61687068401A7060B2689B
:103D2000904200D2B060F06801430020C4E9000175
:103D300000F0E4FA780707D0502080F31188BFF331
:103D40004F8FBFF36F8FFEE73846BDE8F08100006C
:103D5000E400002042F21071884202DC49428842AD
:103D600000DA08467047000010B5031F4FF080745A
:103D70001C601B1F21F001011960191F044B0B600F
:103D800014390A60091F6FF0020244380A6010BD3E
:103D9000553C00080068406A70470000074900234E
:103DA0000A1D002802DD0B601060704703DAC0F1C5
:103DB0000000086000E00B601360704734040040AE
:103DC000064900230A1D002802DD086013607047C1
:103DD0000B60FBDAC0F10000106070473C0400404B
:103DE00001607047D0E9013201699A60D0E901238E
:103DF0005A604A68824201D182684A6000220261A8
:103E00000868401E0860086870470000034B0360A4
:103E100003F1540008608020106070470801002002
:103E200000F108014FF0FF32C0E90112C1600161E9
:103E300000210160704700210161704730B50B68B7
:103E40005A1C02D000F1080202E0026904E0224696
:103E5000546825689D42FAD953684B6099608A601E
:103E6000516008610168491C016030BD42684A60C8
:103E700093688B6093685960916008610168491C80
:103E800001607047502080F31188BFF34F8FBFF35C
:103E90006F8F0A494868401C486001280CD10848C7
:103EA000006810F0FF0F07D0502080F31188BFF397
:103EB0004F8FBFF36F8FFEE770470000FC000020BC
:103EC00004ED00E00849486828B1401E486001D16F
:103ED00080F311887047502080F31188BFF34F8F13
:103EE000BFF36F8FFEE70000FC00002070B50028D4
:103EF00027D0144DA0F108046168E868014207D199
:103F0000502080F31188BFF34F8FBFF36F8FFEE710
:103F100022683AB1502080F31188BFF34F8FBFF36E
:103F20006F8FFEE78143616000F07CF8606869682C
:103F3000084468602046FFF757FEBDE8704000F077
:103F4000DDB970BDE40000204FF0E02000210161E8
:103F5000816105494FF47A720968B1FBF2F1491E9B
:103F60004161072101617047A400002010B50200E3
:103F700014D00F48806B38B1502080F31188BFF304
:103F80004F8FBFF36F8FFEE700F04CF80021104613
:103F9000FFF7CEFC00F0B2F9002807D105494FF039
:103FA00080500860BFF34F8FBFF36F8F10BD0000CC
:103FB000A800002004ED00E010B586B000240394B2
:103FC00005AA04A903A80494FFF720FFDDE9030173
:103FD0000094CDE9011000230EA11048059A00F0CD
:103FE000FEF80F490028486311D0502080F3118853
:103FF000BFF34F8FBFF36F8F4FF0FF300863012087
:10400000C8614C6106B0BDE8104000F041B806B090
:1040100010BD000049444C4500000000F13A000882
:10402000A80000200248816B491C81637047000092
:10403000A80000201448816B11B101214162704732
:10404000002141628169B1FA81F1C1F11F0101EBE7
:1040500081020E4951F822306BB101EB820101F16E
:1040600008034A6852684A609A4201D152684A601D
:10407000D16801607047502080F31188BFF34F8FE3
:10408000BFF36F8FFEE70000A8000020800600202D
:104090001CB537480168374A914207D1502080F358
:1040A0001188BFF34F8FBFF36F8FFEE70068314970
:1040B000491E884207D1502080F31188BFF34F8FEB
:1040C000BFF36F8FFEE72C4908780190FF2008703E
:1040D00008788DF800009DF800009DF8002000F0A1
:1040E000F000904207D0502080F31188BFF34F8F2B
:1040F000BFF36F8FFEE79DF80000204B00F05000EB
:1041000018700720986005E09DF8002052008DF897
:104110000020401E9DF800201206F5D49860032868
:1041200007D0502080F31188BFF34F8FBFF36F8FFC
:10413000FEE74FF440709860019808700C482030FA
:10414000016841F470010160016841F07041016053
:10415000FFF7FAFE00205860FCF746F808480168AF
:1041600041F040410160FCF72BF800201CBD00002D
:1041700000ED00E071C20F4100E400E0FC0000200F
:1041800034EF00E02DE9FF5F8346DDE90E879946B5
:1041900016468A469000FFF771FD05001CD054209A
:1041A000FFF76CFD040014D00020256384F8510053
:1041B000CDE90240CDE900874B463246514658468C
:1041C000FFF7C6FC2046FFF7EBFB012004B0BDE87B
:1041D000F09F2846FFF78AFE4FF0FF30F6E7F0B574
:1041E00085B0DDE90B640A9DA6B1DCB154270097C8
:1041F0002663022684F85160002604AFCDE902460A
:10420000CDE90057FFF7A4FC2046FFF7C9FB04984F
:1042100005B0F0BD502080F31188BFF34F8FBFF37E
:104220006F8FFEE7502080F31188BFF34F8FBFF3ED
:104230006F8FFEE72DE9F0412E4C0027A06B40B1B7
:10424000206A401C2062606A00B101273846BDE840
:10425000F0816669761C666113D16068006838B1C8
:10426000502080F31188BFF34F8FBFF36F8FFEE7AD
:104270006068A1686160A060A06A401CA062FFF74E
:10428000D9FC206BDFF87080864209D36068006833
:1042900080B16068C068C568686886420DD22063D6
:1042A0002068C06A00EB800158F821000128CAD9B3
:1042B0000127C8E74FF0FF30F1E7281DFFF792FD17
:1042C000A86A18B105F11800FFF78CFDE86A012112
:1042D000A26981401143A16100EB800108EB8100DC
:1042E000291DFFF7C3FDE86A2168C96A8842CDD35A
:1042F0000127CBE7A8000020800600202DE9F04729
:104300002C4D00242746A86B38B1FFF7BBFDA86BE6
:10431000401EA863A86B40B146E0502080F311888E
:10432000BFF34F8FBFF36F8FFEE72969224E012045
:10433000D1B3A6F1B40980463068E8B1F068C4682A
:1043400004F11800FFF74EFD201DFFF74BFDE06A5A
:10435000AA6908FA00F11143A96100EB800109EB99
:104360008100211DFFF782FDE06A2968C96A884241
:10437000E2D3C5F82480DFE70CB1FFF75BFC2C6AC1
:1043800044B14646FFF756FF00B16E62641EF9D194
:1043900000202862686A38B1084901273807086098
:1043A000BFF34F8FBFF36F8FFFF78CFD3846BDE82B
:1043B000F0870000A80000203407002004ED00E092
:1043C0009C440008252B00080000000000000000AD
:1043D0008000000000000000000000006C440008A5
:1043E0000D2B0008FDFF0000000000008000000011
:1043F0000000000000000000784400089D2500082F
:10440000FDFF000000000000800000000000000030
:1044100000000000844400084D0C0008FDFF00006F
:10442000000000008000000000000000000000000C
:104430009044000899300008FDFF000000000000D3
:1044400080000000000000000000000000061016C0
:104450000006101600000000000000000102030426
:104460000607080900000000010203046D79546189
:10447000736B3032000000006D795461736B303320
:10448000000000006D795461736B3034000000004F
:104490006D795461736B30350000000064656661AE
:1044A000756C745461736B00C844000800000020F0
:1044B00008010000B6340008D045000808010020BB
:1044C00068460000C634000800000000000000003C
:1044D00000000000000000000000000000000000DC
:1044E0000000000000000000000000000000E040AC
:1044F0000AD7A33B00008C426666E64052499D39CC
:104500000000C8420000000000000000E8030000B6
:10451000000000000000000000000000000000009B
:104520000000000000000000E803000000000000A0
:1045300000000000535A4859FF00201A00000000F4
:10454000000000000080404000000000000000006B
:10455000000000000000000000000000000000005B
:104560000100000010000000000000000024F40022
:10457000000000000000000000000000000000003B
:10458000000000000000000000000000000000002B
:10459000000000000000000000000000000000001B
:1045A000000000000000000000000000000000000B
:1045B00000000000000000000000000000000000FB
:1045C0000000000000000000AAAAAAAA0000000043
:040000050800018965
:00000001FF
